{
  "transactions": [
    {
      "hash": "0xe29a9a7c795b965dc00ffdf2428e38c5bea98789c097edd4850885d19259f1f4",
      "transactionType": "CALL",
      "contractName": "GnosisSafeProxy",
      "contractAddress": "0x8667cde7a8De51ea1d0C8E215845E74c04192D09",
      "function": "execTransactionFromModule(address,uint256,bytes,uint8)",
      "arguments": [
        "0xcA11bde05977b3631167028862bE2a173976CA11",
        "0",
        "0x82ad56cb0000000000000000000000000000000000000000000000000000000000000020000000000000000000000000000000000000000000000000000000000000000100000000000000000000000000000000000000000000000000000000000000200000000000000000000000001131b9a9092e31b725567a8e93a7156a900a881b0000000000000000000000000000000000000000000000000000000000000000000000000000000000000000000000000000000000000000000000000000006000000000000000000000000000000000000000000000000000000000000000a44f1ef286000000000000000000000000210ce6fd65c7765b9b7bfafd72f67e8f9a98ce0900000000000000000000000000000000000000000000000000000000000000400000000000000000000000000000000000000000000000000000000000000024577f435c00000000000000000000000050b92ee79d4fb9e572b5a76f80633f398079c4600000000000000000000000000000000000000000000000000000000000000000000000000000000000000000000000000000000000000000",
        "1"
      ],
      "transaction": {
        "type": "0x02",
        "from": "0x5d5d4d04b70bfe49ad7aac8c4454536070daf180",
        "to": "0x8667cde7a8de51ea1d0c8e215845e74c04192d09",
        "gas": "0x212fd",
        "value": "0x0",
        "data": "0x468721a7000000000000000000000000ca11bde05977b3631167028862be2a173976ca1100000000000000000000000000000000000000000000000000000000000000000000000000000000000000000000000000000000000000000000000000000080000000000000000000000000000000000000000000000000000000000000000100000000000000000000000000000000000000000000000000000000000001a482ad56cb0000000000000000000000000000000000000000000000000000000000000020000000000000000000000000000000000000000000000000000000000000000100000000000000000000000000000000000000000000000000000000000000200000000000000000000000001131b9a9092e31b725567a8e93a7156a900a881b0000000000000000000000000000000000000000000000000000000000000000000000000000000000000000000000000000000000000000000000000000006000000000000000000000000000000000000000000000000000000000000000a44f1ef286000000000000000000000000210ce6fd65c7765b9b7bfafd72f67e8f9a98ce0900000000000000000000000000000000000000000000000000000000000000400000000000000000000000000000000000000000000000000000000000000024577f435c00000000000000000000000050b92ee79d4fb9e572b5a76f80633f398079c460000000000000000000000000000000000000000000000000000000000000000000000000000000000000000000000000000000000000000000000000000000000000000000000000000000000000000000000000",
        "nonce": "0x931",
        "accessList": []
      },
      "additionalContracts": [],
      "isFixedGasLimit": false
    }
  ],
  "receipts": [
    {
      "transactionHash": "0xe29a9a7c795b965dc00ffdf2428e38c5bea98789c097edd4850885d19259f1f4",
      "transactionIndex": "0x1",
      "blockHash": "0x27f740ee69e3159bc860dcc19328181f21b3e6da636e6210bfaafefcb0c6830c",
      "blockNumber": "0x98a92a",
      "from": "0x5d5d4d04B70BFe49ad7Aac8C4454536070dAf180",
      "to": "0x8667cde7a8De51ea1d0C8E215845E74c04192D09",
      "cumulativeGasUsed": "0x2b670",
      "gasUsed": "0x16b12",
      "contractAddress": null,
      "logs": [
        {
          "address": "0x8667cde7a8De51ea1d0C8E215845E74c04192D09",
          "topics": [
            "0xb648d3644f584ed1c2232d53c46d87e693586486ad0d1175f8656013110b714e"
          ],
          "data": "0x0000000000000000000000005d5d4d04b70bfe49ad7aac8c4454536070daf180000000000000000000000000ca11bde05977b3631167028862be2a173976ca11000000000000000000000000000000000000000000000000000000000000000000000000000000000000000000000000000000000000000000000000000000a0000000000000000000000000000000000000000000000000000000000000000100000000000000000000000000000000000000000000000000000000000001a482ad56cb0000000000000000000000000000000000000000000000000000000000000020000000000000000000000000000000000000000000000000000000000000000100000000000000000000000000000000000000000000000000000000000000200000000000000000000000001131b9a9092e31b725567a8e93a7156a900a881b0000000000000000000000000000000000000000000000000000000000000000000000000000000000000000000000000000000000000000000000000000006000000000000000000000000000000000000000000000000000000000000000a44f1ef286000000000000000000000000210ce6fd65c7765b9b7bfafd72f67e8f9a98ce0900000000000000000000000000000000000000000000000000000000000000400000000000000000000000000000000000000000000000000000000000000024577f435c00000000000000000000000050b92ee79d4fb9e572b5a76f80633f398079c460000000000000000000000000000000000000000000000000000000000000000000000000000000000000000000000000000000000000000000000000000000000000000000000000000000000000000000000000",
          "blockHash": "0x27f740ee69e3159bc860dcc19328181f21b3e6da636e6210bfaafefcb0c6830c",
          "blockNumber": "0x98a92a",
          "transactionHash": "0xe29a9a7c795b965dc00ffdf2428e38c5bea98789c097edd4850885d19259f1f4",
          "transactionIndex": "0x1",
          "logIndex": "0x0",
          "removed": false
        },
        {
          "address": "0x1131b9A9092E31b725567A8E93A7156A900a881b",
          "topics": [
            "0xbc7cd75a20ee27fd9adebab32041f755214dbc6bffa90cc0225b39da2e5c2d3b",
            "0x000000000000000000000000210ce6fd65c7765b9b7bfafd72f67e8f9a98ce09"
          ],
          "data": "0x",
          "blockHash": "0x27f740ee69e3159bc860dcc19328181f21b3e6da636e6210bfaafefcb0c6830c",
          "blockNumber": "0x98a92a",
          "transactionHash": "0xe29a9a7c795b965dc00ffdf2428e38c5bea98789c097edd4850885d19259f1f4",
          "transactionIndex": "0x1",
          "logIndex": "0x1",
          "removed": false
        },
        {
          "address": "0x1131b9A9092E31b725567A8E93A7156A900a881b",
          "topics": [
            "0x039a49ce7e24d86ba2a45e91cc3470ef4dbc5c9cc2ff754d1a086ca593a61689",
            "0x00000000000000000000000050b92ee79d4fb9e572b5a76f80633f398079c460"
          ],
          "data": "0x",
          "blockHash": "0x27f740ee69e3159bc860dcc19328181f21b3e6da636e6210bfaafefcb0c6830c",
          "blockNumber": "0x98a92a",
          "transactionHash": "0xe29a9a7c795b965dc00ffdf2428e38c5bea98789c097edd4850885d19259f1f4",
          "transactionIndex": "0x1",
          "logIndex": "0x2",
          "removed": false
        },
        {
          "address": "0x8667cde7a8De51ea1d0C8E215845E74c04192D09",
          "topics": [
            "0x6895c13664aa4f67288b25d7a21d7aaa34916e355fb9b6fae0a139a9085becb8",
            "0x0000000000000000000000005d5d4d04b70bfe49ad7aac8c4454536070daf180"
          ],
          "data": "0x",
          "blockHash": "0x27f740ee69e3159bc860dcc19328181f21b3e6da636e6210bfaafefcb0c6830c",
          "blockNumber": "0x98a92a",
          "transactionHash": "0xe29a9a7c795b965dc00ffdf2428e38c5bea98789c097edd4850885d19259f1f4",
          "transactionIndex": "0x1",
          "logIndex": "0x3",
          "removed": false
        }
      ],
      "status": "0x1",
      "logsBloom": "0x00000001000010000000000000000100408000000000000000000000001000080000000400000080000000000000040000000000000080008000000000000000000000000000000000000000000002000000000000000000000000000000000000000000000000000000000000000002000000000000000000000000000000000000000020000000000000000000000000002000000000000001000000040000000000000000000000000000000008000200000000000000000000000000000000000024000000000000000000000000000000000020000000000000000000000000040000000000000000000000000200020000000000000000000000400000",
      "type": "0x2",
      "effectiveGasPrice": "0xb2d05e0b"
    }
  ],
  "libraries": [],
  "pending": [],
  "returns": {},
  "timestamp": 1699403332,
  "chain": 5,
  "multi": false,
  "commit": "878f413"
}