{
  "transactions": [
    {
      "hash": "0xe29a9a7c795b965dc00ffdf2428e38c5bea98789c097edd4850885d19259f1f4",
      "transactionType": "CALL",
      "contractName": "GnosisSafeProxy",
      "contractAddress": "0x8667cde7a8De51ea1d0C8E215845E74c04192D09",
      "function": "execTransactionFromModule(address,uint256,bytes,uint8)",
      "arguments": [
        "0xcA11bde05977b3631167028862bE2a173976CA11",
        "0",
        "0x82ad56cb0000000000000000000000000000000000000000000000000000000000000020000000000000000000000000000000000000000000000000000000000000000100000000000000000000000000000000000000000000000000000000000000200000000000000000000000001131b9a9092e31b725567a8e93a7156a900a881b0000000000000000000000000000000000000000000000000000000000000000000000000000000000000000000000000000000000000000000000000000006000000000000000000000000000000000000000000000000000000000000000a44f1ef286000000000000000000000000210ce6fd65c7765b9b7bfafd72f67e8f9a98ce0900000000000000000000000000000000000000000000000000000000000000400000000000000000000000000000000000000000000000000000000000000024577f435c00000000000000000000000050b92ee79d4fb9e572b5a76f80633f398079c4600000000000000000000000000000000000000000000000000000000000000000000000000000000000000000000000000000000000000000",
        "1"
      ],
      "transaction": {
        "type": "0x02",
        "from": "0x5d5d4d04b70bfe49ad7aac8c4454536070daf180",
        "to": "0x8667cde7a8de51ea1d0c8e215845e74c04192d09",
        "gas": "0x212fd",
        "value": "0x0",
        "data": "0x468721a7000000000000000000000000ca11bde05977b3631167028862be2a173976ca1100000000000000000000000000000000000000000000000000000000000000000000000000000000000000000000000000000000000000000000000000000080000000000000000000000000000000000000000000000000000000000000000100000000000000000000000000000000000000000000000000000000000001a482ad56cb0000000000000000000000000000000000000000000000000000000000000020000000000000000000000000000000000000000000000000000000000000000100000000000000000000000000000000000000000000000000000000000000200000000000000000000000001131b9a9092e31b725567a8e93a7156a900a881b0000000000000000000000000000000000000000000000000000000000000000000000000000000000000000000000000000000000000000000000000000006000000000000000000000000000000000000000000000000000000000000000a44f1ef286000000000000000000000000210ce6fd65c7765b9b7bfafd72f67e8f9a98ce0900000000000000000000000000000000000000000000000000000000000000400000000000000000000000000000000000000000000000000000000000000024577f435c00000000000000000000000050b92ee79d4fb9e572b5a76f80633f398079c460000000000000000000000000000000000000000000000000000000000000000000000000000000000000000000000000000000000000000000000000000000000000000000000000000000000000000000000000",
        "nonce": "0x931",
        "accessList": []
      },
      "additionalContracts": [],
      "isFixedGasLimit": false
    }
  ],
  "receipts": [],
  "libraries": [],
  "pending": [
    "0xe29a9a7c795b965dc00ffdf2428e38c5bea98789c097edd4850885d19259f1f4"
  ],
  "returns": {},
  "timestamp": 1699403325,
  "chain": 5,
  "multi": false,
  "commit": "878f413"
}