{
  "transactions": [
    {
      "hash": "0x863f815867c3ef6b47a55f081a9298998e830de3ef5e35a74101e0f73e2c8523",
      "transactionType": "CALL",
      "contractName": "GnosisSafeProxy",
      "contractAddress": "0x8667cde7a8De51ea1d0C8E215845E74c04192D09",
      "function": "execTransactionFromModule(address,uint256,bytes,uint8)",
      "arguments": [
        "0xcA11bde05977b3631167028862bE2a173976CA11",
        "0",
        "0x82ad56cb00000000000000000000000000000000000000000000000000000000000000200000000000000000000000000000000000000000000000000000000000000001000000000000000000000000000000000000000000000000000000000000002000000000000000000000000012e58f259135b4b4ba87dff6086fb5d02c6a86ef0000000000000000000000000000000000000000000000000000000000000000000000000000000000000000000000000000000000000000000000000000006000000000000000000000000000000000000000000000000000000000000000a44f1ef286000000000000000000000000210ce6fd65c7765b9b7bfafd72f67e8f9a98ce0900000000000000000000000000000000000000000000000000000000000000400000000000000000000000000000000000000000000000000000000000000024577f435c00000000000000000000000050b92ee79d4fb9e572b5a76f80633f398079c4600000000000000000000000000000000000000000000000000000000000000000000000000000000000000000000000000000000000000000",
        "1"
      ],
      "transaction": {
        "type": "0x02",
        "from": "0x5d5d4d04b70bfe49ad7aac8c4454536070daf180",
        "to": "0x8667cde7a8de51ea1d0c8e215845e74c04192d09",
        "gas": "0x212fd",
        "value": "0x0",
        "data": "0x468721a7000000000000000000000000ca11bde05977b3631167028862be2a173976ca1100000000000000000000000000000000000000000000000000000000000000000000000000000000000000000000000000000000000000000000000000000080000000000000000000000000000000000000000000000000000000000000000100000000000000000000000000000000000000000000000000000000000001a482ad56cb00000000000000000000000000000000000000000000000000000000000000200000000000000000000000000000000000000000000000000000000000000001000000000000000000000000000000000000000000000000000000000000002000000000000000000000000012e58f259135b4b4ba87dff6086fb5d02c6a86ef0000000000000000000000000000000000000000000000000000000000000000000000000000000000000000000000000000000000000000000000000000006000000000000000000000000000000000000000000000000000000000000000a44f1ef286000000000000000000000000210ce6fd65c7765b9b7bfafd72f67e8f9a98ce0900000000000000000000000000000000000000000000000000000000000000400000000000000000000000000000000000000000000000000000000000000024577f435c00000000000000000000000050b92ee79d4fb9e572b5a76f80633f398079c460000000000000000000000000000000000000000000000000000000000000000000000000000000000000000000000000000000000000000000000000000000000000000000000000000000000000000000000000",
        "nonce": "0x932",
        "accessList": []
      },
      "additionalContracts": [],
      "isFixedGasLimit": false
    }
  ],
  "receipts": [],
  "libraries": [],
  "pending": [
    "0x863f815867c3ef6b47a55f081a9298998e830de3ef5e35a74101e0f73e2c8523"
  ],
  "returns": {},
  "timestamp": 1699403372,
  "chain": 5,
  "multi": false,
  "commit": "878f413"
}