{
  "transactions": [
    {
      "hash": "0x88cc4e2bca5872587b899263cfa54996ed5f2185c1418d373ce7b040ca8bdf78",
      "transactionType": "CALL",
      "contractName": null,
      "contractAddress": "0x0c9F8e98994B930f77EcF9b6c1dc1f5d374F04A8",
      "function": "batch(bool,bytes[]):((bool,bytes)[])",
      "arguments": [
        "true",
        "[0x57e5cdb300000000000000000000000082baf7980a57a5cc25221f893330d801e2be0308000000000000000000000000000000000000000000000000000000000000000200000000000000000000000000000000000000000000000000000000000000600000000000000000000000000000000000000000000000000000000000000044e847eac900000000000000000000000000000000000000000000000000000000000186a0000000000000000000000000000000020000000000000000000000000000000000000000000000000000000000000000000000000000000000000000, 0xf54e8267000000000000000000000000f21074833502cbb87d69b7e865c19852a63ca34b0000000000000000000000000000000000000000000000000000000000000000]"
      ],
      "rpc": "https://eth-mainnet.g.alchemy.com/v2/MqqMkW85c8kIpMfuCIWNQs0f1YHm-nOO",
      "transaction": {
        "type": "0x02",
        "from": "0x7ff6363cd3a4e7f9ece98d78dd3c862bace2163d",
        "to": "0x0c9f8e98994b930f77ecf9b6c1dc1f5d374f04a8",
        "gas": "0x1f3bd",
        "value": "0x0",
        "data": "0xc0d0c1c70000000000000000000000000000000000000000000000000000000000000001000000000000000000000000000000000000000000000000000000000000004000000000000000000000000000000000000000000000000000000000000000020000000000000000000000000000000000000000000000000000000000000040000000000000000000000000000000000000000000000000000000000000016000000000000000000000000000000000000000000000000000000000000000e457e5cdb300000000000000000000000082baf7980a57a5cc25221f893330d801e2be0308000000000000000000000000000000000000000000000000000000000000000200000000000000000000000000000000000000000000000000000000000000600000000000000000000000000000000000000000000000000000000000000044e847eac900000000000000000000000000000000000000000000000000000000000186a0000000000000000000000000000000020000000000000000000000000000000000000000000000000000000000000000000000000000000000000000000000000000000000000000000000000000000000000000000000000000000000000000000000000000000000000000000000000000000000000044f54e8267000000000000000000000000f21074833502cbb87d69b7e865c19852a63ca34b000000000000000000000000000000000000000000000000000000000000000000000000000000000000000000000000000000000000000000000000",
        "nonce": "0x17",
        "accessList": []
      },
      "additionalContracts": [],
      "isFixedGasLimit": false
    }
  ],
  "receipts": [
    {
      "transactionHash": "0x88cc4e2bca5872587b899263cfa54996ed5f2185c1418d373ce7b040ca8bdf78",
      "transactionIndex": "0x27",
      "blockHash": "0xbf1edbbc0b0ae9d6f1d4dbd85c27e15d66edcd2a36cfc33628d86e960b0c9285",
      "blockNumber": "0x10964e4",
      "from": "0x7ff6363cd3A4E7f9ece98d78Dd3c862bacE2163d",
      "to": "0x0c9F8e98994B930f77EcF9b6c1dc1f5d374F04A8",
      "cumulativeGasUsed": "0x71b5f2",
      "gasUsed": "0x169ce",
      "contractAddress": null,
      "logs": [
        {
          "address": "0x0c9F8e98994B930f77EcF9b6c1dc1f5d374F04A8",
          "topics": [
            "0x04659db9a2a2dce78519431d87b65ccbd361d66546162254d709850917cc296b",
            "0x00000000000000000000000082baf7980a57a5cc25221f893330d801e2be0308"
          ],
          "data": "0x0000000000000000000000000000000000000000000000000000000000000002",
          "blockHash": "0xbf1edbbc0b0ae9d6f1d4dbd85c27e15d66edcd2a36cfc33628d86e960b0c9285",
          "blockNumber": "0x10964e4",
          "transactionHash": "0x88cc4e2bca5872587b899263cfa54996ed5f2185c1418d373ce7b040ca8bdf78",
          "transactionIndex": "0x27",
          "logIndex": "0x81",
          "removed": false
        },
        {
          "address": "0x82BAf7980a57A5cc25221f893330D801E2bE0308",
          "topics": [
            "0x66fed86cc394b14e854a3a69b938bb66dd26417f40c9d81b28c0d07148751571",
            "0x0000000000000000000000000c9f8e98994b930f77ecf9b6c1dc1f5d374f04a8"
          ],
          "data": "0x00000000000000000000000000000000000000000000000000000000000186a00000000000000000000000000000000200000000000000000000000000000000",
          "blockHash": "0xbf1edbbc0b0ae9d6f1d4dbd85c27e15d66edcd2a36cfc33628d86e960b0c9285",
          "blockNumber": "0x10964e4",
          "transactionHash": "0x88cc4e2bca5872587b899263cfa54996ed5f2185c1418d373ce7b040ca8bdf78",
          "transactionIndex": "0x27",
          "logIndex": "0x82",
          "removed": false
        },
        {
          "address": "0x0c9F8e98994B930f77EcF9b6c1dc1f5d374F04A8",
          "topics": [
            "0x04659db9a2a2dce78519431d87b65ccbd361d66546162254d709850917cc296b",
            "0x000000000000000000000000f21074833502cbb87d69b7e865c19852a63ca34b"
          ],
          "data": "0x0000000000000000000000000000000000000000000000000000000000000000",
          "blockHash": "0xbf1edbbc0b0ae9d6f1d4dbd85c27e15d66edcd2a36cfc33628d86e960b0c9285",
          "blockNumber": "0x10964e4",
          "transactionHash": "0x88cc4e2bca5872587b899263cfa54996ed5f2185c1418d373ce7b040ca8bdf78",
          "transactionIndex": "0x27",
          "logIndex": "0x83",
          "removed": false
        }
      ],
      "status": "0x1",
      "logsBloom": "0x00000000000000000000000000000000000000000000000000000000000000000000000000000000040000000000000000000000000000000000000204000000000800000000100000000000000000000000000000000008000000800000000000000800000000001000000000080800000000000000000042000000000000000000000000400000000000000000000000000000000004000000000000800000000400000000000000000000000000000000001000000000000000000000000000000002000000000000000000000000000010000000000000000000000000000000000000000000000000000000000000000000000000000000000000400000",
      "type": "0x2",
      "effectiveGasPrice": "0x7483603fe"
    }
  ],
  "libraries": [],
  "pending": [],
  "path": "/Users/cswenberg/Code/station/tokens-v1/broadcast/EarlyDoors.s.sol/1/run-latest.json",
  "returns": {},
  "timestamp": 1685706675,
  "chain": 1,
  "multi": false,
  "commit": "9b5489a"
}