{
  "transactions": [
    {
      "hash": "0x88cc4e2bca5872587b899263cfa54996ed5f2185c1418d373ce7b040ca8bdf78",
      "transactionType": "CALL",
      "contractName": null,
      "contractAddress": "0x0c9F8e98994B930f77EcF9b6c1dc1f5d374F04A8",
      "function": "batch(bool,bytes[]):((bool,bytes)[])",
      "arguments": [
        "true",
        "[0x57e5cdb300000000000000000000000082baf7980a57a5cc25221f893330d801e2be0308000000000000000000000000000000000000000000000000000000000000000200000000000000000000000000000000000000000000000000000000000000600000000000000000000000000000000000000000000000000000000000000044e847eac900000000000000000000000000000000000000000000000000000000000186a0000000000000000000000000000000020000000000000000000000000000000000000000000000000000000000000000000000000000000000000000, 0xf54e8267000000000000000000000000f21074833502cbb87d69b7e865c19852a63ca34b0000000000000000000000000000000000000000000000000000000000000000]"
      ],
      "rpc": "https://eth-mainnet.g.alchemy.com/v2/MqqMkW85c8kIpMfuCIWNQs0f1YHm-nOO",
      "transaction": {
        "type": "0x02",
        "from": "0x7ff6363cd3a4e7f9ece98d78dd3c862bace2163d",
        "to": "0x0c9f8e98994b930f77ecf9b6c1dc1f5d374f04a8",
        "gas": "0x1f3bd",
        "value": "0x0",
        "data": "0xc0d0c1c70000000000000000000000000000000000000000000000000000000000000001000000000000000000000000000000000000000000000000000000000000004000000000000000000000000000000000000000000000000000000000000000020000000000000000000000000000000000000000000000000000000000000040000000000000000000000000000000000000000000000000000000000000016000000000000000000000000000000000000000000000000000000000000000e457e5cdb300000000000000000000000082baf7980a57a5cc25221f893330d801e2be0308000000000000000000000000000000000000000000000000000000000000000200000000000000000000000000000000000000000000000000000000000000600000000000000000000000000000000000000000000000000000000000000044e847eac900000000000000000000000000000000000000000000000000000000000186a0000000000000000000000000000000020000000000000000000000000000000000000000000000000000000000000000000000000000000000000000000000000000000000000000000000000000000000000000000000000000000000000000000000000000000000000000000000000000000000000044f54e8267000000000000000000000000f21074833502cbb87d69b7e865c19852a63ca34b000000000000000000000000000000000000000000000000000000000000000000000000000000000000000000000000000000000000000000000000",
        "nonce": "0x17",
        "accessList": []
      },
      "additionalContracts": [],
      "isFixedGasLimit": false
    }
  ],
  "receipts": [],
  "libraries": [],
  "pending": [
    "0x88cc4e2bca5872587b899263cfa54996ed5f2185c1418d373ce7b040ca8bdf78"
  ],
  "path": "/Users/cswenberg/Code/station/tokens-v1/broadcast/EarlyDoors.s.sol/1/run-latest.json",
  "returns": {},
  "timestamp": 1685706669,
  "chain": 1,
  "multi": false,
  "commit": "9b5489a"
}