{
  "transactions": [
    {
      "hash": "0x4392deefc239e4d0ec86ca196abc0e9f3aaab7adc5e29339dda1dd626964cbc5",
      "transactionType": "CALL",
      "contractName": null,
      "contractAddress": "0x42fbf62Ab204d24380aA3E45fF8822DBe6f07B00",
      "function": "batch(bool,bytes[]):((bool,bytes)[])",
      "arguments": [
        "true",
        "[0x57e5cdb30000000000000000000000009c4969e1c585491ac5382eeeb9bc9668f8a5788c000000000000000000000000000000000000000000000000000000000000000200000000000000000000000000000000000000000000000000000000000000600000000000000000000000000000000000000000000000000000000000000044e847eac90000000000000000000000000000000000000000000000000000000000000064000000000000000000000000000000020000000000000000000000000000000000000000000000000000000000000000000000000000000000000000, 0x657e45010000000000000000000000007d29e5eba46eef74b6fc643aec6300d5fc74f7b5, 0xf54e82670000000000000000000000007ff6363cd3a4e7f9ece98d78dd3c862bace2163d0000000000000000000000000000000000000000000000000000000000000001]"
      ],
      "rpc": "https://eth-goerli.alchemyapi.io/v2/ZJIj3ytrFaWioVp550EyzD4MR9q5VClg",
      "transaction": {
        "type": "0x02",
        "from": "0x7ff6363cd3a4e7f9ece98d78dd3c862bace2163d",
        "to": "0x42fbf62ab204d24380aa3e45ff8822dbe6f07b00",
        "gas": "0x2eb57",
        "value": "0x0",
        "data": "0xc0d0c1c70000000000000000000000000000000000000000000000000000000000000001000000000000000000000000000000000000000000000000000000000000004000000000000000000000000000000000000000000000000000000000000000030000000000000000000000000000000000000000000000000000000000000060000000000000000000000000000000000000000000000000000000000000018000000000000000000000000000000000000000000000000000000000000001e000000000000000000000000000000000000000000000000000000000000000e457e5cdb30000000000000000000000009c4969e1c585491ac5382eeeb9bc9668f8a5788c000000000000000000000000000000000000000000000000000000000000000200000000000000000000000000000000000000000000000000000000000000600000000000000000000000000000000000000000000000000000000000000044e847eac90000000000000000000000000000000000000000000000000000000000000064000000000000000000000000000000020000000000000000000000000000000000000000000000000000000000000000000000000000000000000000000000000000000000000000000000000000000000000000000000000000000000000000000000000000000000000000000000000000000000000024657e45010000000000000000000000007d29e5eba46eef74b6fc643aec6300d5fc74f7b5000000000000000000000000000000000000000000000000000000000000000000000000000000000000000000000000000000000000000000000044f54e82670000000000000000000000007ff6363cd3a4e7f9ece98d78dd3c862bace2163d000000000000000000000000000000000000000000000000000000000000000100000000000000000000000000000000000000000000000000000000",
        "nonce": "0x46",
        "accessList": []
      },
      "additionalContracts": [],
      "isFixedGasLimit": false
    }
  ],
  "receipts": [],
  "libraries": [],
  "pending": [
    "0x4392deefc239e4d0ec86ca196abc0e9f3aaab7adc5e29339dda1dd626964cbc5"
  ],
  "path": "/Users/cswenberg/Code/station/tokens-v1/broadcast/EarlyDoors.s.sol/5/run-latest.json",
  "returns": {},
  "timestamp": 1686937070,
  "chain": 5,
  "multi": false,
  "commit": "c7a5977"
}