{
  "transactions": [
    {
      "hash": "0x4392deefc239e4d0ec86ca196abc0e9f3aaab7adc5e29339dda1dd626964cbc5",
      "transactionType": "CALL",
      "contractName": null,
      "contractAddress": "0x42fbf62Ab204d24380aA3E45fF8822DBe6f07B00",
      "function": "batch(bool,bytes[]):((bool,bytes)[])",
      "arguments": [
        "true",
        "[0x57e5cdb30000000000000000000000009c4969e1c585491ac5382eeeb9bc9668f8a5788c000000000000000000000000000000000000000000000000000000000000000200000000000000000000000000000000000000000000000000000000000000600000000000000000000000000000000000000000000000000000000000000044e847eac90000000000000000000000000000000000000000000000000000000000000064000000000000000000000000000000020000000000000000000000000000000000000000000000000000000000000000000000000000000000000000, 0x657e45010000000000000000000000007d29e5eba46eef74b6fc643aec6300d5fc74f7b5, 0xf54e82670000000000000000000000007ff6363cd3a4e7f9ece98d78dd3c862bace2163d0000000000000000000000000000000000000000000000000000000000000001]"
      ],
      "rpc": "https://eth-goerli.alchemyapi.io/v2/ZJIj3ytrFaWioVp550EyzD4MR9q5VClg",
      "transaction": {
        "type": "0x02",
        "from": "0x7ff6363cd3a4e7f9ece98d78dd3c862bace2163d",
        "to": "0x42fbf62ab204d24380aa3e45ff8822dbe6f07b00",
        "gas": "0x2eb57",
        "value": "0x0",
        "data": "0xc0d0c1c70000000000000000000000000000000000000000000000000000000000000001000000000000000000000000000000000000000000000000000000000000004000000000000000000000000000000000000000000000000000000000000000030000000000000000000000000000000000000000000000000000000000000060000000000000000000000000000000000000000000000000000000000000018000000000000000000000000000000000000000000000000000000000000001e000000000000000000000000000000000000000000000000000000000000000e457e5cdb30000000000000000000000009c4969e1c585491ac5382eeeb9bc9668f8a5788c000000000000000000000000000000000000000000000000000000000000000200000000000000000000000000000000000000000000000000000000000000600000000000000000000000000000000000000000000000000000000000000044e847eac90000000000000000000000000000000000000000000000000000000000000064000000000000000000000000000000020000000000000000000000000000000000000000000000000000000000000000000000000000000000000000000000000000000000000000000000000000000000000000000000000000000000000000000000000000000000000000000000000000000000000024657e45010000000000000000000000007d29e5eba46eef74b6fc643aec6300d5fc74f7b5000000000000000000000000000000000000000000000000000000000000000000000000000000000000000000000000000000000000000000000044f54e82670000000000000000000000007ff6363cd3a4e7f9ece98d78dd3c862bace2163d000000000000000000000000000000000000000000000000000000000000000100000000000000000000000000000000000000000000000000000000",
        "nonce": "0x46",
        "accessList": []
      },
      "additionalContracts": [],
      "isFixedGasLimit": false
    }
  ],
  "receipts": [
    {
      "transactionHash": "0x4392deefc239e4d0ec86ca196abc0e9f3aaab7adc5e29339dda1dd626964cbc5",
      "transactionIndex": "0x3",
      "blockHash": "0x74136ea6637506fabad7eb50e2fcdf7e4d8447581cd0ef0e5900a22c0fbfe789",
      "blockNumber": "0x8c38fd",
      "from": "0x7ff6363cd3A4E7f9ece98d78Dd3c862bacE2163d",
      "to": "0x42fbf62Ab204d24380aA3E45fF8822DBe6f07B00",
      "cumulativeGasUsed": "0x38d07",
      "gasUsed": "0x21d10",
      "contractAddress": null,
      "logs": [
        {
          "address": "0x42fbf62Ab204d24380aA3E45fF8822DBe6f07B00",
          "topics": [
            "0x04659db9a2a2dce78519431d87b65ccbd361d66546162254d709850917cc296b",
            "0x0000000000000000000000009c4969e1c585491ac5382eeeb9bc9668f8a5788c"
          ],
          "data": "0x0000000000000000000000000000000000000000000000000000000000000002",
          "blockHash": "0x74136ea6637506fabad7eb50e2fcdf7e4d8447581cd0ef0e5900a22c0fbfe789",
          "blockNumber": "0x8c38fd",
          "transactionHash": "0x4392deefc239e4d0ec86ca196abc0e9f3aaab7adc5e29339dda1dd626964cbc5",
          "transactionIndex": "0x3",
          "logIndex": "0x2",
          "removed": false
        },
        {
          "address": "0x9c4969e1c585491Ac5382EeeB9BC9668f8a5788c",
          "topics": [
            "0x66fed86cc394b14e854a3a69b938bb66dd26417f40c9d81b28c0d07148751571",
            "0x00000000000000000000000042fbf62ab204d24380aa3e45ff8822dbe6f07b00"
          ],
          "data": "0x00000000000000000000000000000000000000000000000000000000000000640000000000000000000000000000000200000000000000000000000000000000",
          "blockHash": "0x74136ea6637506fabad7eb50e2fcdf7e4d8447581cd0ef0e5900a22c0fbfe789",
          "blockNumber": "0x8c38fd",
          "transactionHash": "0x4392deefc239e4d0ec86ca196abc0e9f3aaab7adc5e29339dda1dd626964cbc5",
          "transactionIndex": "0x3",
          "logIndex": "0x3",
          "removed": false
        },
        {
          "address": "0x42fbf62Ab204d24380aA3E45fF8822DBe6f07B00",
          "topics": [
            "0x846516f2c9c501b9e51d00056f701f45b85e21470a560613c7e2b62da8b46a31",
            "0x0000000000000000000000007d29e5eba46eef74b6fc643aec6300d5fc74f7b5"
          ],
          "data": "0x",
          "blockHash": "0x74136ea6637506fabad7eb50e2fcdf7e4d8447581cd0ef0e5900a22c0fbfe789",
          "blockNumber": "0x8c38fd",
          "transactionHash": "0x4392deefc239e4d0ec86ca196abc0e9f3aaab7adc5e29339dda1dd626964cbc5",
          "transactionIndex": "0x3",
          "logIndex": "0x4",
          "removed": false
        },
        {
          "address": "0x42fbf62Ab204d24380aA3E45fF8822DBe6f07B00",
          "topics": [
            "0x04659db9a2a2dce78519431d87b65ccbd361d66546162254d709850917cc296b",
            "0x0000000000000000000000007ff6363cd3a4e7f9ece98d78dd3c862bace2163d"
          ],
          "data": "0x0000000000000000000000000000000000000000000000000000000000000001",
          "blockHash": "0x74136ea6637506fabad7eb50e2fcdf7e4d8447581cd0ef0e5900a22c0fbfe789",
          "blockNumber": "0x8c38fd",
          "transactionHash": "0x4392deefc239e4d0ec86ca196abc0e9f3aaab7adc5e29339dda1dd626964cbc5",
          "transactionIndex": "0x3",
          "logIndex": "0x5",
          "removed": false
        }
      ],
      "status": "0x1",
      "logsBloom": "0x00000000000112000000000000000000000000000040000004000008000000000000100000000000840000000000000000000000000000000000000000000000000000000000000000000000000800000000000000000000000000800000000000000000000000001000080000000000000000000000000040000000000000000000000000400000000000001000600000020000000000000000000000000000001400000000000080000000000000400400000000000000400000000200000000000000000000000000000000000000000000000000000000000000000000000000000000000000000000000000000800000000000000000000000000000000",
      "type": "0x2",
      "effectiveGasPrice": "0xb2d05e1e"
    }
  ],
  "libraries": [],
  "pending": [],
  "path": "/Users/cswenberg/Code/station/tokens-v1/broadcast/EarlyDoors.s.sol/5/run-latest.json",
  "returns": {},
  "timestamp": 1686937095,
  "chain": 5,
  "multi": false,
  "commit": "c7a5977"
}