{
  "transactions": [
    {
      "hash": "0x1316e8c02bfdce4eba764c8ca9cea8e92a292fca64abcd69cedacfd65c803bba",
      "transactionType": "CALL",
      "contractName": null,
      "contractAddress": "0x155f41e95a9a655F1218A70ABA6622164DdBC50E",
      "function": "permitAndSetup(address,bytes32,bytes)",
      "arguments": [
        "0x1580DC4479D1c55c817957883af44025A383D1C8",
        "0x0000000000000000000000000000000000000000000000000000000000000002",
        "0x74b7a7f300000000000000000000000000000000000000000000000000000000000186a00000000000000000000000000000000000000000000000000000000000000002"
      ],
      "rpc": "https://eth-goerli.alchemyapi.io/v2/ZJIj3ytrFaWioVp550EyzD4MR9q5VClg",
      "transaction": {
        "type": "0x02",
        "from": "0x7ff6363cd3a4e7f9ece98d78dd3c862bace2163d",
        "to": "0x155f41e95a9a655f1218a70aba6622164ddbc50e",
        "gas": "0x22fb4",
        "value": "0x0",
        "data": "0x57e5cdb30000000000000000000000001580dc4479d1c55c817957883af44025a383d1c800000000000000000000000000000000000000000000000000000000000000020000000000000000000000000000000000000000000000000000000000000060000000000000000000000000000000000000000000000000000000000000004474b7a7f300000000000000000000000000000000000000000000000000000000000186a0000000000000000000000000000000000000000000000000000000000000000200000000000000000000000000000000000000000000000000000000",
        "nonce": "0x3e",
        "accessList": []
      },
      "additionalContracts": [],
      "isFixedGasLimit": false
    }
  ],
  "receipts": [
    {
      "transactionHash": "0x1316e8c02bfdce4eba764c8ca9cea8e92a292fca64abcd69cedacfd65c803bba",
      "transactionIndex": "0x1b",
      "blockHash": "0x9944bb94ca68f28f1d035aec25d0cdf537634a74e40c06fb238511363020551a",
      "blockNumber": "0x8afa29",
      "from": "0x7ff6363cd3A4E7f9ece98d78Dd3c862bacE2163d",
      "to": "0x155f41e95a9a655F1218A70ABA6622164DdBC50E",
      "cumulativeGasUsed": "0xd7f0c7",
      "gasUsed": "0x19538",
      "contractAddress": null,
      "logs": [
        {
          "address": "0x155f41e95a9a655F1218A70ABA6622164DdBC50E",
          "topics": [
            "0x04659db9a2a2dce78519431d87b65ccbd361d66546162254d709850917cc296b",
            "0x0000000000000000000000001580dc4479d1c55c817957883af44025a383d1c8"
          ],
          "data": "0x0000000000000000000000000000000000000000000000000000000000000002",
          "blockHash": "0x9944bb94ca68f28f1d035aec25d0cdf537634a74e40c06fb238511363020551a",
          "blockNumber": "0x8afa29",
          "transactionHash": "0x1316e8c02bfdce4eba764c8ca9cea8e92a292fca64abcd69cedacfd65c803bba",
          "transactionIndex": "0x1b",
          "logIndex": "0x41",
          "removed": false
        }
      ],
      "status": "0x1",
      "logsBloom": "0x00000000000000000000000000000000000000000000000000000000000000000000000000000000040000000000000000000000000000000000000040000000000000000000000000000000000000000000000000002000000000800000000000020000000000000000000000000000000000000000000040000000000000000000000000000000000000000000040000000000000000000000000000000000000000000000000000000000000000000000000000000000000000000000000000000000000000000000000000000000001000000000000000000000000000000000000000000000000000000000000002000000000000000000000000000000",
      "type": "0x2",
      "effectiveGasPrice": "0xab4b93a42"
    }
  ],
  "libraries": [],
  "pending": [],
  "path": "/Users/cswenberg/Code/station/tokens-v1/broadcast/EarlyDoors.s.sol/5/run-latest.json",
  "returns": {},
  "timestamp": 1685696559,
  "chain": 5,
  "multi": false,
  "commit": "2f24baf"
}