{
  "transactions": [
    {
      "hash": "0x79eb54a418bd9f3f9d933a6aeca5e56812a2af967730a1ac5b58f59a40e49a4c",
      "transactionType": "CALL",
      "contractName": null,
      "contractAddress": "0x155f41e95a9a655F1218A70ABA6622164DdBC50E",
      "function": "permitAndSetup(address,bytes32,bytes)",
      "arguments": [
        "0x9c4969e1c585491Ac5382EeeB9BC9668f8a5788c",
        "0x0000000000000000000000000000000000000000000000000000000000000002",
        "0xe847eac900000000000000000000000000000000000000000000000000000000000186a00000000000000000000000000000000200000000000000000000000000000000"
      ],
      "rpc": "https://eth-goerli.alchemyapi.io/v2/ZJIj3ytrFaWioVp550EyzD4MR9q5VClg",
      "transaction": {
        "type": "0x02",
        "from": "0x7ff6363cd3a4e7f9ece98d78dd3c862bace2163d",
        "to": "0x155f41e95a9a655f1218a70aba6622164ddbc50e",
        "gas": "0x1ddd4",
        "value": "0x0",
        "data": "0x57e5cdb30000000000000000000000009c4969e1c585491ac5382eeeb9bc9668f8a5788c000000000000000000000000000000000000000000000000000000000000000200000000000000000000000000000000000000000000000000000000000000600000000000000000000000000000000000000000000000000000000000000044e847eac900000000000000000000000000000000000000000000000000000000000186a0000000000000000000000000000000020000000000000000000000000000000000000000000000000000000000000000000000000000000000000000",
        "nonce": "0x3b",
        "accessList": []
      },
      "additionalContracts": [],
      "isFixedGasLimit": false
    }
  ],
  "receipts": [],
  "libraries": [],
  "pending": [
    "0x79eb54a418bd9f3f9d933a6aeca5e56812a2af967730a1ac5b58f59a40e49a4c"
  ],
  "path": "/Users/cswenberg/Code/station/tokens-v1/broadcast/EarlyDoors.s.sol/5/run-latest.json",
  "returns": {},
  "timestamp": 1685695883,
  "chain": 5,
  "multi": false,
  "commit": "d36d089"
}