{
  "transactions": [
    {
      "hash": "0x79eb54a418bd9f3f9d933a6aeca5e56812a2af967730a1ac5b58f59a40e49a4c",
      "transactionType": "CALL",
      "contractName": null,
      "contractAddress": "0x155f41e95a9a655F1218A70ABA6622164DdBC50E",
      "function": "permitAndSetup(address,bytes32,bytes)",
      "arguments": [
        "0x9c4969e1c585491Ac5382EeeB9BC9668f8a5788c",
        "0x0000000000000000000000000000000000000000000000000000000000000002",
        "0xe847eac900000000000000000000000000000000000000000000000000000000000186a00000000000000000000000000000000200000000000000000000000000000000"
      ],
      "rpc": "https://eth-goerli.alchemyapi.io/v2/ZJIj3ytrFaWioVp550EyzD4MR9q5VClg",
      "transaction": {
        "type": "0x02",
        "from": "0x7ff6363cd3a4e7f9ece98d78dd3c862bace2163d",
        "to": "0x155f41e95a9a655f1218a70aba6622164ddbc50e",
        "gas": "0x1ddd4",
        "value": "0x0",
        "data": "0x57e5cdb30000000000000000000000009c4969e1c585491ac5382eeeb9bc9668f8a5788c000000000000000000000000000000000000000000000000000000000000000200000000000000000000000000000000000000000000000000000000000000600000000000000000000000000000000000000000000000000000000000000044e847eac900000000000000000000000000000000000000000000000000000000000186a0000000000000000000000000000000020000000000000000000000000000000000000000000000000000000000000000000000000000000000000000",
        "nonce": "0x3b",
        "accessList": []
      },
      "additionalContracts": [],
      "isFixedGasLimit": false
    }
  ],
  "receipts": [
    {
      "transactionHash": "0x79eb54a418bd9f3f9d933a6aeca5e56812a2af967730a1ac5b58f59a40e49a4c",
      "transactionIndex": "0x14",
      "blockHash": "0x9961e766073576122cf6f19d317752bf0ab45eafcdea39f50b4f3a6aaa0bc49f",
      "blockNumber": "0x8af9fc",
      "from": "0x7ff6363cd3A4E7f9ece98d78Dd3c862bacE2163d",
      "to": "0x155f41e95a9a655F1218A70ABA6622164DdBC50E",
      "cumulativeGasUsed": "0x29f395",
      "gasUsed": "0x146b9",
      "contractAddress": null,
      "logs": [
        {
          "address": "0x155f41e95a9a655F1218A70ABA6622164DdBC50E",
          "topics": [
            "0x04659db9a2a2dce78519431d87b65ccbd361d66546162254d709850917cc296b",
            "0x0000000000000000000000009c4969e1c585491ac5382eeeb9bc9668f8a5788c"
          ],
          "data": "0x0000000000000000000000000000000000000000000000000000000000000002",
          "blockHash": "0x9961e766073576122cf6f19d317752bf0ab45eafcdea39f50b4f3a6aaa0bc49f",
          "blockNumber": "0x8af9fc",
          "transactionHash": "0x79eb54a418bd9f3f9d933a6aeca5e56812a2af967730a1ac5b58f59a40e49a4c",
          "transactionIndex": "0x14",
          "logIndex": "0x27",
          "removed": false
        },
        {
          "address": "0x9c4969e1c585491Ac5382EeeB9BC9668f8a5788c",
          "topics": [
            "0x66fed86cc394b14e854a3a69b938bb66dd26417f40c9d81b28c0d07148751571",
            "0x000000000000000000000000155f41e95a9a655f1218a70aba6622164ddbc50e"
          ],
          "data": "0x00000000000000000000000000000000000000000000000000000000000186a00000000000000000000000000000000200000000000000000000000000000000",
          "blockHash": "0x9961e766073576122cf6f19d317752bf0ab45eafcdea39f50b4f3a6aaa0bc49f",
          "blockNumber": "0x8af9fc",
          "transactionHash": "0x79eb54a418bd9f3f9d933a6aeca5e56812a2af967730a1ac5b58f59a40e49a4c",
          "transactionIndex": "0x14",
          "logIndex": "0x28",
          "removed": false
        }
      ],
      "status": "0x1",
      "logsBloom": "0x00000000000010000000000000000000000000000000000004000000000000000000000000000000040000000800000000000000000000000000000040000000000100000000000000000000000000000000000000000000000000800000000000000000000000001000000000000000000000000000000040000000000000000000000000400000000000001000000000000000000000000000000000000000001400000000000000000000000000400400000000000000000000000000000000000000000000000000000000000000001000000000000008000000000000000000000000000000000000000000000002000000000000000000000000000000",
      "type": "0x2",
      "effectiveGasPrice": "0xdb4102a0e"
    }
  ],
  "libraries": [],
  "pending": [],
  "path": "/Users/cswenberg/Code/station/tokens-v1/broadcast/EarlyDoors.s.sol/5/run-latest.json",
  "returns": {},
  "timestamp": 1685695902,
  "chain": 5,
  "multi": false,
  "commit": "d36d089"
}