{
  "transactions": [
    {
      "hash": "0x47b7416737aa3bf33c5f75813e49117f228171c69d806b59da5b1d7fd3dbc752",
      "transactionType": "CALL",
      "contractName": "GnosisSafeProxy",
      "contractAddress": "0x8667cde7a8De51ea1d0C8E215845E74c04192D09",
      "function": "execTransactionFromModule(address,uint256,bytes,uint8):(bool)",
      "arguments": [
        "0xcA11bde05977b3631167028862bE2a173976CA11",
        "0",
        "0x82ad56cb000000000000000000000000000000000000000000000000000000000000002000000000000000000000000000000000000000000000000000000000000000010000000000000000000000000000000000000000000000000000000000000020000000000000000000000000169288565733188d1673606c423297eca1855bfb000000000000000000000000000000000000000000000000000000000000000000000000000000000000000000000000000000000000000000000000000000600000000000000000000000000000000000000000000000000000000000000044c2593dc718b11501aca1cd5e000000000000000000000000000000000000000000000000000000000000000000000000fa46681e6e898bb4018fb566feb4d265379f91bd00000000000000000000000000000000000000000000000000000000",
        "1"
      ],
      "transaction": {
        "type": "0x02",
        "from": "0x7ff6363cd3a4e7f9ece98d78dd3c862bace2163d",
        "to": "0x8667cde7a8de51ea1d0c8e215845e74c04192d09",
        "gas": "0x28383",
        "value": "0x0",
        "data": "0x468721a7000000000000000000000000ca11bde05977b3631167028862be2a173976ca11000000000000000000000000000000000000000000000000000000000000000000000000000000000000000000000000000000000000000000000000000000800000000000000000000000000000000000000000000000000000000000000001000000000000000000000000000000000000000000000000000000000000014482ad56cb000000000000000000000000000000000000000000000000000000000000002000000000000000000000000000000000000000000000000000000000000000010000000000000000000000000000000000000000000000000000000000000020000000000000000000000000169288565733188d1673606c423297eca1855bfb000000000000000000000000000000000000000000000000000000000000000000000000000000000000000000000000000000000000000000000000000000600000000000000000000000000000000000000000000000000000000000000044c2593dc718b11501aca1cd5e000000000000000000000000000000000000000000000000000000000000000000000000fa46681e6e898bb4018fb566feb4d265379f91bd0000000000000000000000000000000000000000000000000000000000000000000000000000000000000000000000000000000000000000",
        "nonce": "0x208",
        "accessList": []
      },
      "additionalContracts": [],
      "isFixedGasLimit": false
    }
  ],
  "receipts": [
    {
      "transactionHash": "0x47b7416737aa3bf33c5f75813e49117f228171c69d806b59da5b1d7fd3dbc752",
      "transactionIndex": "0x2",
      "blockHash": "0x1c0b7e0ca0d0ecd880e28d9ba0bb610fa88f32ae66f68fee16696911ae319dfc",
      "blockNumber": "0x99135c",
      "from": "0x7ff6363cd3A4E7f9ece98d78Dd3c862bacE2163d",
      "to": "0x8667cde7a8De51ea1d0C8E215845E74c04192D09",
      "cumulativeGasUsed": "0x16db10",
      "gasUsed": "0x1b803",
      "contractAddress": null,
      "logs": [
        {
          "address": "0x8667cde7a8De51ea1d0C8E215845E74c04192D09",
          "topics": [
            "0xb648d3644f584ed1c2232d53c46d87e693586486ad0d1175f8656013110b714e"
          ],
          "data": "0x0000000000000000000000007ff6363cd3a4e7f9ece98d78dd3c862bace2163d000000000000000000000000ca11bde05977b3631167028862be2a173976ca11000000000000000000000000000000000000000000000000000000000000000000000000000000000000000000000000000000000000000000000000000000a00000000000000000000000000000000000000000000000000000000000000001000000000000000000000000000000000000000000000000000000000000014482ad56cb000000000000000000000000000000000000000000000000000000000000002000000000000000000000000000000000000000000000000000000000000000010000000000000000000000000000000000000000000000000000000000000020000000000000000000000000169288565733188d1673606c423297eca1855bfb000000000000000000000000000000000000000000000000000000000000000000000000000000000000000000000000000000000000000000000000000000600000000000000000000000000000000000000000000000000000000000000044c2593dc718b11501aca1cd5e000000000000000000000000000000000000000000000000000000000000000000000000fa46681e6e898bb4018fb566feb4d265379f91bd0000000000000000000000000000000000000000000000000000000000000000000000000000000000000000000000000000000000000000",
          "blockHash": "0x1c0b7e0ca0d0ecd880e28d9ba0bb610fa88f32ae66f68fee16696911ae319dfc",
          "blockNumber": "0x99135c",
          "transactionHash": "0x47b7416737aa3bf33c5f75813e49117f228171c69d806b59da5b1d7fd3dbc752",
          "transactionIndex": "0x2",
          "logIndex": "0x2a",
          "removed": false
        },
        {
          "address": "0x169288565733188d1673606c423297ecA1855bfB",
          "topics": [
            "0x70c1bbcf050e5b1587aabe97f0ba5633e67e187e67be1143cab0479dc75b81e7",
            "0x18b11501aca1cd5e000000000000000000000000000000000000000000000000",
            "0x000000000000000000000000fa46681e6e898bb4018fb566feb4d265379f91bd"
          ],
          "data": "0x",
          "blockHash": "0x1c0b7e0ca0d0ecd880e28d9ba0bb610fa88f32ae66f68fee16696911ae319dfc",
          "blockNumber": "0x99135c",
          "transactionHash": "0x47b7416737aa3bf33c5f75813e49117f228171c69d806b59da5b1d7fd3dbc752",
          "transactionIndex": "0x2",
          "logIndex": "0x2b",
          "removed": false
        },
        {
          "address": "0x8667cde7a8De51ea1d0C8E215845E74c04192D09",
          "topics": [
            "0x6895c13664aa4f67288b25d7a21d7aaa34916e355fb9b6fae0a139a9085becb8",
            "0x0000000000000000000000007ff6363cd3a4e7f9ece98d78dd3c862bace2163d"
          ],
          "data": "0x",
          "blockHash": "0x1c0b7e0ca0d0ecd880e28d9ba0bb610fa88f32ae66f68fee16696911ae319dfc",
          "blockNumber": "0x99135c",
          "transactionHash": "0x47b7416737aa3bf33c5f75813e49117f228171c69d806b59da5b1d7fd3dbc752",
          "transactionIndex": "0x2",
          "logIndex": "0x2c",
          "removed": false
        }
      ],
      "status": "0x1",
      "logsBloom": "0x00000003000010000000000000000000000000000000000000000000000000000000000000000000000000000000000000000000000000008004000000000000000000000000000000000000000000000000000000000000000000000000000000000000000000000000000000000002004000000005200000000000000000000000000020000000000000000000400000020000000000000000000000000000000000000000000000000000000008000200000000000000400000000000000000001000000000000000000000000000000000000020000000000000000020000000000400000000000000000000000220080000000800000000000000000000",
      "type": "0x2",
      "effectiveGasPrice": "0xb2d05e08"
    }
  ],
  "libraries": [],
  "pending": [],
  "returns": {},
  "timestamp": 1699813604,
  "chain": 5,
  "multi": false,
  "commit": "e94b09e"
}