{
  "transactions": [
    {
      "hash": "0xbff542867b65f4914862ce12b8eb17e43ec64a14be7c10bb485438dc41c960c6",
      "transactionType": "CALL",
      "contractName": "FreeMintModuleV2",
      "contractAddress": "0x37CDd35d650c3f88C1E2F011a2d9FfE295f23132",
      "function": "updateFee(uint256)",
      "arguments": [
        "1000000000000000"
      ],
      "rpc": "https://eth-goerli.alchemyapi.io/v2/ZJIj3ytrFaWioVp550EyzD4MR9q5VClg",
      "transaction": {
        "type": "0x02",
        "from": "0x016562aa41a8697720ce0943f003141f5deae006",
        "to": "0x37cdd35d650c3f88c1e2f011a2d9ffe295f23132",
        "gas": "0xaa71",
        "value": "0x0",
        "data": "0x9012c4a800000000000000000000000000000000000000000000000000038d7ea4c68000",
        "nonce": "0x1a1",
        "accessList": []
      },
      "additionalContracts": [],
      "isFixedGasLimit": false
    },
    {
      "hash": "0xce23a094ad9f38d14d9d430dc991535c430f12d7e9fef139f6169cd59b57101c",
      "transactionType": "CALL",
      "contractName": "EthPurchaseModuleV2",
      "contractAddress": "0x64FCaCfd9f94fA6e3e186593e86247E1Ab84B40d",
      "function": "updateFee(uint256)",
      "arguments": [
        "1000000000000000"
      ],
      "rpc": "https://eth-goerli.alchemyapi.io/v2/ZJIj3ytrFaWioVp550EyzD4MR9q5VClg",
      "transaction": {
        "type": "0x02",
        "from": "0x016562aa41a8697720ce0943f003141f5deae006",
        "to": "0x64fcacfd9f94fa6e3e186593e86247e1ab84b40d",
        "gas": "0xa0da",
        "value": "0x0",
        "data": "0x9012c4a800000000000000000000000000000000000000000000000000038d7ea4c68000",
        "nonce": "0x1a2",
        "accessList": []
      },
      "additionalContracts": [],
      "isFixedGasLimit": false
    },
    {
      "hash": "0x7ac901573dc03d94b14ed41c9608035451bdf7fbcee489cb7f81111853412055",
      "transactionType": "CALL",
      "contractName": "StablecoinPurchaseModuleV2",
      "contractAddress": "0xBAfCE0738451666f43dD98Bb579D59F64a91DB2e",
      "function": "updateFee(uint256)",
      "arguments": [
        "1000000000000000"
      ],
      "rpc": "https://eth-goerli.alchemyapi.io/v2/ZJIj3ytrFaWioVp550EyzD4MR9q5VClg",
      "transaction": {
        "type": "0x02",
        "from": "0x016562aa41a8697720ce0943f003141f5deae006",
        "to": "0xbafce0738451666f43dd98bb579d59f64a91db2e",
        "gas": "0xa0fa",
        "value": "0x0",
        "data": "0x9012c4a800000000000000000000000000000000000000000000000000038d7ea4c68000",
        "nonce": "0x1a3",
        "accessList": []
      },
      "additionalContracts": [],
      "isFixedGasLimit": false
    }
  ],
  "receipts": [
    {
      "transactionHash": "0xbff542867b65f4914862ce12b8eb17e43ec64a14be7c10bb485438dc41c960c6",
      "transactionIndex": "0x3",
      "blockHash": "0x50b5963baa2a83569f9365f0eff512f3063baa0909d06631156009fedf508b18",
      "blockNumber": "0x8e5e02",
      "from": "0x016562aA41A8697720ce0943F003141f5dEAe006",
      "to": "0x37CDd35d650c3f88C1E2F011a2d9FfE295f23132",
      "cumulativeGasUsed": "0x3da3a",
      "gasUsed": "0x748b",
      "contractAddress": null,
      "logs": [
        {
          "address": "0x37CDd35d650c3f88C1E2F011a2d9FfE295f23132",
          "topics": [
            "0x38e229a7f3f9c329892d08eb37c4e91ccac6d12c798d394990ca4f56028ec266"
          ],
          "data": "0x00000000000000000000000000000000000000000000000000038d7ea4c68000",
          "blockHash": "0x50b5963baa2a83569f9365f0eff512f3063baa0909d06631156009fedf508b18",
          "blockNumber": "0x8e5e02",
          "transactionHash": "0xbff542867b65f4914862ce12b8eb17e43ec64a14be7c10bb485438dc41c960c6",
          "transactionIndex": "0x3",
          "logIndex": "0x4",
          "removed": false
        }
      ],
      "status": "0x1",
      "logsBloom": "0x00000000000000000000000000000000000000000000000000000002000000000000000000000000000000000000000000000000000000000000000000000000000000000000000000000000000008000000000000000000000000000000000000000000002000000000000000000000000000000000000000000000000000000000000000000000000000000000000000000000000000000000000000000000000000000000000000000000000000008000000000000000000000000000000000000000010000000000000000000000000000000000000000000000000000000010000000000000000000000000000000000000000000000000000000000000",
      "type": "0x2",
      "effectiveGasPrice": "0xb2d05e0a"
    },
    {
      "transactionHash": "0xce23a094ad9f38d14d9d430dc991535c430f12d7e9fef139f6169cd59b57101c",
      "transactionIndex": "0x4",
      "blockHash": "0x50b5963baa2a83569f9365f0eff512f3063baa0909d06631156009fedf508b18",
      "blockNumber": "0x8e5e02",
      "from": "0x016562aA41A8697720ce0943F003141f5dEAe006",
      "to": "0x64FCaCfd9f94fA6e3e186593e86247E1Ab84B40d",
      "cumulativeGasUsed": "0x44eaf",
      "gasUsed": "0x7475",
      "contractAddress": null,
      "logs": [
        {
          "address": "0x64FCaCfd9f94fA6e3e186593e86247E1Ab84B40d",
          "topics": [
            "0x38e229a7f3f9c329892d08eb37c4e91ccac6d12c798d394990ca4f56028ec266"
          ],
          "data": "0x00000000000000000000000000000000000000000000000000038d7ea4c68000",
          "blockHash": "0x50b5963baa2a83569f9365f0eff512f3063baa0909d06631156009fedf508b18",
          "blockNumber": "0x8e5e02",
          "transactionHash": "0xce23a094ad9f38d14d9d430dc991535c430f12d7e9fef139f6169cd59b57101c",
          "transactionIndex": "0x4",
          "logIndex": "0x5",
          "removed": false
        }
      ],
      "status": "0x1",
      "logsBloom": "0x00000000000000000000000000000000000000000000000000000002000000000000000000000000000000000000000000000000000000000000000000000000000000000000000000000000000000000000000000000000000000000000000000000000000000000000000000000000000000000000000000000000000000000000000020000000000000000000000000000000000000000000000000000000000000000000000000000000000000000000000000000000000000000000000000000000010000000000000000000000000000000000000000000000000020000010000000000000000000000000000000000000000000000000000400000000",
      "type": "0x2",
      "effectiveGasPrice": "0xb2d05e0a"
    },
    {
      "transactionHash": "0x7ac901573dc03d94b14ed41c9608035451bdf7fbcee489cb7f81111853412055",
      "transactionIndex": "0x5",
      "blockHash": "0x50b5963baa2a83569f9365f0eff512f3063baa0909d06631156009fedf508b18",
      "blockNumber": "0x8e5e02",
      "from": "0x016562aA41A8697720ce0943F003141f5dEAe006",
      "to": "0xBAfCE0738451666f43dD98Bb579D59F64a91DB2e",
      "cumulativeGasUsed": "0x4c33b",
      "gasUsed": "0x748c",
      "contractAddress": null,
      "logs": [
        {
          "address": "0xBAfCE0738451666f43dD98Bb579D59F64a91DB2e",
          "topics": [
            "0x38e229a7f3f9c329892d08eb37c4e91ccac6d12c798d394990ca4f56028ec266"
          ],
          "data": "0x00000000000000000000000000000000000000000000000000038d7ea4c68000",
          "blockHash": "0x50b5963baa2a83569f9365f0eff512f3063baa0909d06631156009fedf508b18",
          "blockNumber": "0x8e5e02",
          "transactionHash": "0x7ac901573dc03d94b14ed41c9608035451bdf7fbcee489cb7f81111853412055",
          "transactionIndex": "0x5",
          "logIndex": "0x6",
          "removed": false
        }
      ],
      "status": "0x1",
      "logsBloom": "0x00000000000000000000000000000000000000000000000000000002000000000000000000000000000000000000000000000000000000000000000000000000000000000000000002000000000000000000000000000000000000000000000000000000000000000000000000000000000000000000000000000000000000000000000000000000000000000000000000000000000000000000000000000000000000000000000000000000000000000000000000000200000000000000000000000000010000000000000000000000000000000000000000000000000000020010000000000000000000000000000000000000000000000000000000000000",
      "type": "0x2",
      "effectiveGasPrice": "0xb2d05e0a"
    }
  ],
  "libraries": [],
  "pending": [],
  "path": "/Users/cswenberg/Code/station/tokens-v1/broadcast/UpdateModuleFees.s.sol/5/run-latest.json",
  "returns": {},
  "timestamp": 1689116142,
  "chain": 5,
  "multi": false,
  "commit": "41f737f"
}