{
  "transactions": [
    {
      "hash": "0xf424ab1f74f0ea09e777ab17cb7abc8295a43213236db64c3da58e43fa5fdefc",
      "transactionType": "CALL",
      "contractName": null,
      "contractAddress": "0xC727b7c9123fEc809E896C530AAfeA7Eda8fc684",
      "function": "create(address,string,string,bytes):(address)",
      "arguments": [
        "0x7ff6363cd3A4E7f9ece98d78Dd3c862bacE2163d",
        "0xPacman Points",
        "0xPP",
        "0xac9650d80000000000000000000000000000000000000000000000000000000000000020000000000000000000000000000000000000000000000000000000000000000400000000000000000000000000000000000000000000000000000000000000800000000000000000000000000000000000000000000000000000000000000100000000000000000000000000000000000000000000000000000000000000018000000000000000000000000000000000000000000000000000000000000002000000000000000000000000000000000000000000000000000000000000000044c2593dc70b6c53f325d325d3000000000000000000000000000000000000000000000000000000000000000000000000bb942519a1339992630b13c3252f04fcb09d4841000000000000000000000000000000000000000000000000000000000000000000000000000000000000000000000000000000000000000000000044c2593dc738381131ea27ecba000000000000000000000000000000000000000000000000000000000000000000000000bb942519a1339992630b13c3252f04fcb09d4841000000000000000000000000000000000000000000000000000000000000000000000000000000000000000000000000000000000000000000000044c2593dc7fd45ddde6135ec42000000000000000000000000000000000000000000000000000000000000000000000000e7affdb964178261df49b86bfdba78e9d768db6d000000000000000000000000000000000000000000000000000000000000000000000000000000000000000000000000000000000000000000000044c2593dc7fd45ddde6135ec420000000000000000000000000000000000000000000000000000000000000000000000007ff6363cd3a4e7f9ece98d78dd3c862bace2163d00000000000000000000000000000000000000000000000000000000"
      ],
      "transaction": {
        "type": "0x02",
        "from": "0x7ff6363cd3a4e7f9ece98d78dd3c862bace2163d",
        "to": "0xc727b7c9123fec809e896c530aafea7eda8fc684",
        "gas": "0xa01a2",
        "value": "0x0",
        "data": "0x485a7a640000000000000000000000007ff6363cd3a4e7f9ece98d78dd3c862bace2163d000000000000000000000000000000000000000000000000000000000000008000000000000000000000000000000000000000000000000000000000000000c00000000000000000000000000000000000000000000000000000000000000100000000000000000000000000000000000000000000000000000000000000000f30785061636d616e20506f696e747300000000000000000000000000000000000000000000000000000000000000000000000000000000000000000000000004307850500000000000000000000000000000000000000000000000000000000000000000000000000000000000000000000000000000000000000000000002c4ac9650d80000000000000000000000000000000000000000000000000000000000000020000000000000000000000000000000000000000000000000000000000000000400000000000000000000000000000000000000000000000000000000000000800000000000000000000000000000000000000000000000000000000000000100000000000000000000000000000000000000000000000000000000000000018000000000000000000000000000000000000000000000000000000000000002000000000000000000000000000000000000000000000000000000000000000044c2593dc70b6c53f325d325d3000000000000000000000000000000000000000000000000000000000000000000000000bb942519a1339992630b13c3252f04fcb09d4841000000000000000000000000000000000000000000000000000000000000000000000000000000000000000000000000000000000000000000000044c2593dc738381131ea27ecba000000000000000000000000000000000000000000000000000000000000000000000000bb942519a1339992630b13c3252f04fcb09d4841000000000000000000000000000000000000000000000000000000000000000000000000000000000000000000000000000000000000000000000044c2593dc7fd45ddde6135ec42000000000000000000000000000000000000000000000000000000000000000000000000e7affdb964178261df49b86bfdba78e9d768db6d000000000000000000000000000000000000000000000000000000000000000000000000000000000000000000000000000000000000000000000044c2593dc7fd45ddde6135ec420000000000000000000000000000000000000000000000000000000000000000000000007ff6363cd3a4e7f9ece98d78dd3c862bace2163d0000000000000000000000000000000000000000000000000000000000000000000000000000000000000000000000000000000000000000",
        "nonce": "0x184",
        "accessList": []
      },
      "additionalContracts": [
        {
          "transactionType": "CREATE",
          "address": "0xff71AfaC1AD4D1144626e79649c141f9806c4698",
          "initCode": "60806040526040516104e13803806104e1833981016040819052610022916102de565b61002e82826000610035565b50506103fb565b61003e83610061565b60008251118061004b5750805b1561005c5761005a83836100a1565b505b505050565b61006a816100cd565b6040516001600160a01b038216907fbc7cd75a20ee27fd9adebab32041f755214dbc6bffa90cc0225b39da2e5c2d3b90600090a250565b60606100c683836040518060600160405280602781526020016104ba60279139610180565b9392505050565b6001600160a01b0381163b61013f5760405162461bcd60e51b815260206004820152602d60248201527f455243313936373a206e657720696d706c656d656e746174696f6e206973206e60448201526c1bdd08184818dbdb9d1c9858dd609a1b60648201526084015b60405180910390fd5b7f360894a13ba1a3210667c828492db98dca3e2076cc3735a920a3ca505d382bbc80546001600160a01b0319166001600160a01b0392909216919091179055565b6060600080856001600160a01b03168560405161019d91906103ac565b600060405180830381855af49150503d80600081146101d8576040519150601f19603f3d011682016040523d82523d6000602084013e6101dd565b606091505b5090925090506101ef868383876101f9565b9695505050505050565b60608315610268578251600003610261576001600160a01b0385163b6102615760405162461bcd60e51b815260206004820152601d60248201527f416464726573733a2063616c6c20746f206e6f6e2d636f6e74726163740000006044820152606401610136565b5081610272565b610272838361027a565b949350505050565b81511561028a5781518083602001fd5b8060405162461bcd60e51b815260040161013691906103c8565b634e487b7160e01b600052604160045260246000fd5b60005b838110156102d55781810151838201526020016102bd565b50506000910152565b600080604083850312156102f157600080fd5b82516001600160a01b038116811461030857600080fd5b60208401519092506001600160401b038082111561032557600080fd5b818501915085601f83011261033957600080fd5b81518181111561034b5761034b6102a4565b604051601f8201601f19908116603f01168101908382118183101715610373576103736102a4565b8160405282815288602084870101111561038c57600080fd5b61039d8360208301602088016102ba565b80955050505050509250929050565b600082516103be8184602087016102ba565b9190910192915050565b60208152600082518060208401526103e78160408501602087016102ba565b601f01601f19169190910160400192915050565b60b1806104096000396000f3fe608060405236601057600e6013565b005b600e5b601f601b6021565b6058565b565b600060537f360894a13ba1a3210667c828492db98dca3e2076cc3735a920a3ca505d382bbc546001600160a01b031690565b905090565b3660008037600080366000845af43d6000803e8080156076573d6000f35b3d6000fdfea26469706673582212205dbb6d244f0eb278dbe0010f6e43aac4a0bea78eadb8c311595c6fd15ed2d94d64736f6c63430008130033416464726573733a206c6f772d6c6576656c2064656c65676174652063616c6c206661696c65640000000000000000000000005195a67ebf55e6f76f6c36e017e14a807d1f4c1d00000000000000000000000000000000000000000000000000000000000000400000000000000000000000000000000000000000000000000000000000000000"
        }
      ],
      "isFixedGasLimit": false
    }
  ],
  "receipts": [
    {
      "transactionHash": "0xf424ab1f74f0ea09e777ab17cb7abc8295a43213236db64c3da58e43fa5fdefc",
      "transactionIndex": "0x1",
      "blockHash": "0x8925e16824183b7216893b5596bed34184bf498be0825390cfd3b854ad4823cf",
      "blockNumber": "0x94729f",
      "from": "0x7ff6363cd3A4E7f9ece98d78Dd3c862bacE2163d",
      "to": "0xC727b7c9123fEc809E896C530AAfeA7Eda8fc684",
      "cumulativeGasUsed": "0x790f2",
      "gasUsed": "0x73eea",
      "contractAddress": null,
      "logs": [
        {
          "address": "0xff71AfaC1AD4D1144626e79649c141f9806c4698",
          "topics": [
            "0xbc7cd75a20ee27fd9adebab32041f755214dbc6bffa90cc0225b39da2e5c2d3b",
            "0x0000000000000000000000005195a67ebf55e6f76f6c36e017e14a807d1f4c1d"
          ],
          "data": "0x",
          "blockHash": "0x8925e16824183b7216893b5596bed34184bf498be0825390cfd3b854ad4823cf",
          "blockNumber": "0x94729f",
          "transactionHash": "0xf424ab1f74f0ea09e777ab17cb7abc8295a43213236db64c3da58e43fa5fdefc",
          "transactionIndex": "0x1",
          "logIndex": "0x0",
          "removed": false
        },
        {
          "address": "0xC727b7c9123fEc809E896C530AAfeA7Eda8fc684",
          "topics": [
            "0x959aa6c160f05e44d38121f17a05189a3f5a311ce32e962de049d56fd5ea31bf",
            "0x000000000000000000000000ff71afac1ad4d1144626e79649c141f9806c4698"
          ],
          "data": "0x",
          "blockHash": "0x8925e16824183b7216893b5596bed34184bf498be0825390cfd3b854ad4823cf",
          "blockNumber": "0x94729f",
          "transactionHash": "0xf424ab1f74f0ea09e777ab17cb7abc8295a43213236db64c3da58e43fa5fdefc",
          "transactionIndex": "0x1",
          "logIndex": "0x1",
          "removed": false
        },
        {
          "address": "0xff71AfaC1AD4D1144626e79649c141f9806c4698",
          "topics": [
            "0x9f7688a97f1ac51fe03bac18af18d6810f9f11f0db08c59b1938a9ac825ef744"
          ],
          "data": "0x0000000000000000000000000000000000000000000000000000000000000020000000000000000000000000000000000000000000000000000000000000000f30785061636d616e20506f696e74730000000000000000000000000000000000",
          "blockHash": "0x8925e16824183b7216893b5596bed34184bf498be0825390cfd3b854ad4823cf",
          "blockNumber": "0x94729f",
          "transactionHash": "0xf424ab1f74f0ea09e777ab17cb7abc8295a43213236db64c3da58e43fa5fdefc",
          "transactionIndex": "0x1",
          "logIndex": "0x2",
          "removed": false
        },
        {
          "address": "0xff71AfaC1AD4D1144626e79649c141f9806c4698",
          "topics": [
            "0xee007fd2e1891a2f6c8408b57ade5b0550dea71a5a06cc4df7ded4646a4584a5"
          ],
          "data": "0x000000000000000000000000000000000000000000000000000000000000002000000000000000000000000000000000000000000000000000000000000000043078505000000000000000000000000000000000000000000000000000000000",
          "blockHash": "0x8925e16824183b7216893b5596bed34184bf498be0825390cfd3b854ad4823cf",
          "blockNumber": "0x94729f",
          "transactionHash": "0xf424ab1f74f0ea09e777ab17cb7abc8295a43213236db64c3da58e43fa5fdefc",
          "transactionIndex": "0x1",
          "logIndex": "0x3",
          "removed": false
        },
        {
          "address": "0xff71AfaC1AD4D1144626e79649c141f9806c4698",
          "topics": [
            "0x8be0079c531659141344cd1fd0a4f28419497f9722a3daafe3b4186f6b6457e0",
            "0x0000000000000000000000000000000000000000000000000000000000000000",
            "0x000000000000000000000000c727b7c9123fec809e896c530aafea7eda8fc684"
          ],
          "data": "0x",
          "blockHash": "0x8925e16824183b7216893b5596bed34184bf498be0825390cfd3b854ad4823cf",
          "blockNumber": "0x94729f",
          "transactionHash": "0xf424ab1f74f0ea09e777ab17cb7abc8295a43213236db64c3da58e43fa5fdefc",
          "transactionIndex": "0x1",
          "logIndex": "0x4",
          "removed": false
        },
        {
          "address": "0xff71AfaC1AD4D1144626e79649c141f9806c4698",
          "topics": [
            "0x70c1bbcf050e5b1587aabe97f0ba5633e67e187e67be1143cab0479dc75b81e7",
            "0x0b6c53f325d325d3000000000000000000000000000000000000000000000000",
            "0x000000000000000000000000bb942519a1339992630b13c3252f04fcb09d4841"
          ],
          "data": "0x",
          "blockHash": "0x8925e16824183b7216893b5596bed34184bf498be0825390cfd3b854ad4823cf",
          "blockNumber": "0x94729f",
          "transactionHash": "0xf424ab1f74f0ea09e777ab17cb7abc8295a43213236db64c3da58e43fa5fdefc",
          "transactionIndex": "0x1",
          "logIndex": "0x5",
          "removed": false
        },
        {
          "address": "0xff71AfaC1AD4D1144626e79649c141f9806c4698",
          "topics": [
            "0x70c1bbcf050e5b1587aabe97f0ba5633e67e187e67be1143cab0479dc75b81e7",
            "0x38381131ea27ecba000000000000000000000000000000000000000000000000",
            "0x000000000000000000000000bb942519a1339992630b13c3252f04fcb09d4841"
          ],
          "data": "0x",
          "blockHash": "0x8925e16824183b7216893b5596bed34184bf498be0825390cfd3b854ad4823cf",
          "blockNumber": "0x94729f",
          "transactionHash": "0xf424ab1f74f0ea09e777ab17cb7abc8295a43213236db64c3da58e43fa5fdefc",
          "transactionIndex": "0x1",
          "logIndex": "0x6",
          "removed": false
        },
        {
          "address": "0xff71AfaC1AD4D1144626e79649c141f9806c4698",
          "topics": [
            "0x70c1bbcf050e5b1587aabe97f0ba5633e67e187e67be1143cab0479dc75b81e7",
            "0xfd45ddde6135ec42000000000000000000000000000000000000000000000000",
            "0x000000000000000000000000e7affdb964178261df49b86bfdba78e9d768db6d"
          ],
          "data": "0x",
          "blockHash": "0x8925e16824183b7216893b5596bed34184bf498be0825390cfd3b854ad4823cf",
          "blockNumber": "0x94729f",
          "transactionHash": "0xf424ab1f74f0ea09e777ab17cb7abc8295a43213236db64c3da58e43fa5fdefc",
          "transactionIndex": "0x1",
          "logIndex": "0x7",
          "removed": false
        },
        {
          "address": "0xff71AfaC1AD4D1144626e79649c141f9806c4698",
          "topics": [
            "0x70c1bbcf050e5b1587aabe97f0ba5633e67e187e67be1143cab0479dc75b81e7",
            "0xfd45ddde6135ec42000000000000000000000000000000000000000000000000",
            "0x0000000000000000000000007ff6363cd3a4e7f9ece98d78dd3c862bace2163d"
          ],
          "data": "0x",
          "blockHash": "0x8925e16824183b7216893b5596bed34184bf498be0825390cfd3b854ad4823cf",
          "blockNumber": "0x94729f",
          "transactionHash": "0xf424ab1f74f0ea09e777ab17cb7abc8295a43213236db64c3da58e43fa5fdefc",
          "transactionIndex": "0x1",
          "logIndex": "0x8",
          "removed": false
        },
        {
          "address": "0xff71AfaC1AD4D1144626e79649c141f9806c4698",
          "topics": [
            "0x8be0079c531659141344cd1fd0a4f28419497f9722a3daafe3b4186f6b6457e0",
            "0x000000000000000000000000c727b7c9123fec809e896c530aafea7eda8fc684",
            "0x0000000000000000000000007ff6363cd3a4e7f9ece98d78dd3c862bace2163d"
          ],
          "data": "0x",
          "blockHash": "0x8925e16824183b7216893b5596bed34184bf498be0825390cfd3b854ad4823cf",
          "blockNumber": "0x94729f",
          "transactionHash": "0xf424ab1f74f0ea09e777ab17cb7abc8295a43213236db64c3da58e43fa5fdefc",
          "transactionIndex": "0x1",
          "logIndex": "0x9",
          "removed": false
        },
        {
          "address": "0xff71AfaC1AD4D1144626e79649c141f9806c4698",
          "topics": [
            "0x5daa87a0e9463431830481fd4b6e3403442dfb9a12b9c07597e9f61d50b633c8"
          ],
          "data": "0x",
          "blockHash": "0x8925e16824183b7216893b5596bed34184bf498be0825390cfd3b854ad4823cf",
          "blockNumber": "0x94729f",
          "transactionHash": "0xf424ab1f74f0ea09e777ab17cb7abc8295a43213236db64c3da58e43fa5fdefc",
          "transactionIndex": "0x1",
          "logIndex": "0xa",
          "removed": false
        }
      ],
      "status": "0x1",
      "logsBloom": "0x00000000000000000000000000000000400000004000000000a00000000000000000000000000000000000000000000000000404000000000800000000000100000000000000000000000000000002010001040000000000001004000000080000000280020000400100000000000800804000000000000000000000002000400800004040040000080000000000400000020000000000000000000004100008100000000000000000000000000010000000000000000180400000000000000000001020008000000000000800040000010004040000000000000000000021000800000000000000008000000008000001080000000000100000000000004000",
      "type": "0x2",
      "effectiveGasPrice": "0xb2d05e0e"
    }
  ],
  "libraries": [],
  "pending": [],
  "returns": {},
  "timestamp": 1695222244,
  "chain": 5,
  "multi": false,
  "commit": "bee9c70"
}