{
  "transactions": [
    {
      "hash": "0xe08f6e08bf9fedcba0e8713bb4601946c518da5e5922bd9a3bd3cb86608cecf0",
      "transactionType": "CALL",
      "contractName": null,
      "contractAddress": "0x3192BF082DD537944b09Da147C5AFbAf9d6dC11C",
      "function": "create(address,string,string,bytes):(address)",
      "arguments": [
        "0x7ff6363cd3A4E7f9ece98d78Dd3c862bacE2163d",
        "Badges",
        "BADGES",
        "0xac9650d80000000000000000000000000000000000000000000000000000000000000020000000000000000000000000000000000000000000000000000000000000000600000000000000000000000000000000000000000000000000000000000000c0000000000000000000000000000000000000000000000000000000000000014000000000000000000000000000000000000000000000000000000000000001c0000000000000000000000000000000000000000000000000000000000000024000000000000000000000000000000000000000000000000000000000000002c0000000000000000000000000000000000000000000000000000000000000034000000000000000000000000000000000000000000000000000000000000000440439a74a073bca3400000000000000000000000000000000000000000000000000000000000000000000000000000000d130547bfcb52f66d0233f0206a6c427d89f81ed0000000000000000000000000000000000000000000000000000000000000000000000000000000000000000000000000000000000000000000000440439a74a8638c44900000000000000000000000000000000000000000000000000000000000000000000000000000000d130547bfcb52f66d0233f0206a6c427d89f81ed000000000000000000000000000000000000000000000000000000000000000000000000000000000000000000000000000000000000000000000044c2593dc70b6c53f325d325d3000000000000000000000000000000000000000000000000000000000000000000000000bb942519a1339992630b13c3252f04fcb09d4841000000000000000000000000000000000000000000000000000000000000000000000000000000000000000000000000000000000000000000000044c2593dc738381131ea27ecba000000000000000000000000000000000000000000000000000000000000000000000000bb942519a1339992630b13c3252f04fcb09d4841000000000000000000000000000000000000000000000000000000000000000000000000000000000000000000000000000000000000000000000044c2593dc7fd45ddde6135ec42000000000000000000000000000000000000000000000000000000000000000000000000e7affdb964178261df49b86bfdba78e9d768db6d000000000000000000000000000000000000000000000000000000000000000000000000000000000000000000000000000000000000000000000044c2593dc7fd45ddde6135ec420000000000000000000000000000000000000000000000000000000000000000000000007ff6363cd3a4e7f9ece98d78dd3c862bace2163d00000000000000000000000000000000000000000000000000000000"
      ],
      "transaction": {
        "type": "0x02",
        "from": "0x7ff6363cd3a4e7f9ece98d78dd3c862bace2163d",
        "to": "0x3192bf082dd537944b09da147c5afbaf9d6dc11c",
        "gas": "0xc47f5",
        "value": "0x0",
        "data": "0x485a7a640000000000000000000000007ff6363cd3a4e7f9ece98d78dd3c862bace2163d000000000000000000000000000000000000000000000000000000000000008000000000000000000000000000000000000000000000000000000000000000c0000000000000000000000000000000000000000000000000000000000000010000000000000000000000000000000000000000000000000000000000000000064261646765730000000000000000000000000000000000000000000000000000000000000000000000000000000000000000000000000000000000000000000642414447455300000000000000000000000000000000000000000000000000000000000000000000000000000000000000000000000000000000000000000404ac9650d80000000000000000000000000000000000000000000000000000000000000020000000000000000000000000000000000000000000000000000000000000000600000000000000000000000000000000000000000000000000000000000000c0000000000000000000000000000000000000000000000000000000000000014000000000000000000000000000000000000000000000000000000000000001c0000000000000000000000000000000000000000000000000000000000000024000000000000000000000000000000000000000000000000000000000000002c0000000000000000000000000000000000000000000000000000000000000034000000000000000000000000000000000000000000000000000000000000000440439a74a073bca3400000000000000000000000000000000000000000000000000000000000000000000000000000000d130547bfcb52f66d0233f0206a6c427d89f81ed0000000000000000000000000000000000000000000000000000000000000000000000000000000000000000000000000000000000000000000000440439a74a8638c44900000000000000000000000000000000000000000000000000000000000000000000000000000000d130547bfcb52f66d0233f0206a6c427d89f81ed000000000000000000000000000000000000000000000000000000000000000000000000000000000000000000000000000000000000000000000044c2593dc70b6c53f325d325d3000000000000000000000000000000000000000000000000000000000000000000000000bb942519a1339992630b13c3252f04fcb09d4841000000000000000000000000000000000000000000000000000000000000000000000000000000000000000000000000000000000000000000000044c2593dc738381131ea27ecba000000000000000000000000000000000000000000000000000000000000000000000000bb942519a1339992630b13c3252f04fcb09d4841000000000000000000000000000000000000000000000000000000000000000000000000000000000000000000000000000000000000000000000044c2593dc7fd45ddde6135ec42000000000000000000000000000000000000000000000000000000000000000000000000e7affdb964178261df49b86bfdba78e9d768db6d000000000000000000000000000000000000000000000000000000000000000000000000000000000000000000000000000000000000000000000044c2593dc7fd45ddde6135ec420000000000000000000000000000000000000000000000000000000000000000000000007ff6363cd3a4e7f9ece98d78dd3c862bace2163d0000000000000000000000000000000000000000000000000000000000000000000000000000000000000000000000000000000000000000",
        "nonce": "0x164",
        "accessList": []
      },
      "additionalContracts": [
        {
          "transactionType": "CREATE",
          "address": "0x1e75a5e24C5dBcDd87F843DEb142E2864dA27e56",
          "initCode": "60806040526040516104e13803806104e1833981016040819052610022916102de565b61002e82826000610035565b50506103fb565b61003e83610061565b60008251118061004b5750805b1561005c5761005a83836100a1565b505b505050565b61006a816100cd565b6040516001600160a01b038216907fbc7cd75a20ee27fd9adebab32041f755214dbc6bffa90cc0225b39da2e5c2d3b90600090a250565b60606100c683836040518060600160405280602781526020016104ba60279139610180565b9392505050565b6001600160a01b0381163b61013f5760405162461bcd60e51b815260206004820152602d60248201527f455243313936373a206e657720696d706c656d656e746174696f6e206973206e60448201526c1bdd08184818dbdb9d1c9858dd609a1b60648201526084015b60405180910390fd5b7f360894a13ba1a3210667c828492db98dca3e2076cc3735a920a3ca505d382bbc80546001600160a01b0319166001600160a01b0392909216919091179055565b6060600080856001600160a01b03168560405161019d91906103ac565b600060405180830381855af49150503d80600081146101d8576040519150601f19603f3d011682016040523d82523d6000602084013e6101dd565b606091505b5090925090506101ef868383876101f9565b9695505050505050565b60608315610268578251600003610261576001600160a01b0385163b6102615760405162461bcd60e51b815260206004820152601d60248201527f416464726573733a2063616c6c20746f206e6f6e2d636f6e74726163740000006044820152606401610136565b5081610272565b610272838361027a565b949350505050565b81511561028a5781518083602001fd5b8060405162461bcd60e51b815260040161013691906103c8565b634e487b7160e01b600052604160045260246000fd5b60005b838110156102d55781810151838201526020016102bd565b50506000910152565b600080604083850312156102f157600080fd5b82516001600160a01b038116811461030857600080fd5b60208401519092506001600160401b038082111561032557600080fd5b818501915085601f83011261033957600080fd5b81518181111561034b5761034b6102a4565b604051601f8201601f19908116603f01168101908382118183101715610373576103736102a4565b8160405282815288602084870101111561038c57600080fd5b61039d8360208301602088016102ba565b80955050505050509250929050565b600082516103be8184602087016102ba565b9190910192915050565b60208152600082518060208401526103e78160408501602087016102ba565b601f01601f19169190910160400192915050565b60b1806104096000396000f3fe608060405236601057600e6013565b005b600e5b601f601b6021565b6058565b565b600060537f360894a13ba1a3210667c828492db98dca3e2076cc3735a920a3ca505d382bbc546001600160a01b031690565b905090565b3660008037600080366000845af43d6000803e8080156076573d6000f35b3d6000fdfea26469706673582212205dbb6d244f0eb278dbe0010f6e43aac4a0bea78eadb8c311595c6fd15ed2d94d64736f6c63430008130033416464726573733a206c6f772d6c6576656c2064656c65676174652063616c6c206661696c65640000000000000000000000000016864123d66b09bbbffa690992196fdbdaa77100000000000000000000000000000000000000000000000000000000000000400000000000000000000000000000000000000000000000000000000000000000"
        }
      ],
      "isFixedGasLimit": false
    }
  ],
  "receipts": [],
  "libraries": [],
  "pending": [
    "0xe08f6e08bf9fedcba0e8713bb4601946c518da5e5922bd9a3bd3cb86608cecf0"
  ],
  "returns": {},
  "timestamp": 1693609734,
  "chain": 5,
  "multi": false,
  "commit": "2f5acf8"
}