{
  "transactions": [
    {
      "hash": "0x4377f58e236423e06c935349ef3ac62b2ef795a310ac8003e556513ac0088f58",
      "transactionType": "CREATE",
      "contractName": null,
      "contractAddress": "0xDd38b268a50ce1553D7666D59A66f3960b3fbcBe",
      "function": null,
      "arguments": null,
      "rpc": "https://eth-goerli.alchemyapi.io/v2/ZJIj3ytrFaWioVp550EyzD4MR9q5VClg",
      "transaction": {
        "type": "0x02",
        "from": "0x7ff6363cd3a4e7f9ece98d78dd3c862bace2163d",
        "gas": "0x58c2d",
        "value": "0x0",
        "data": "0x60806040526040516104e13803806104e1833981016040819052610022916102de565b61002e82826000610035565b50506103fb565b61003e83610061565b60008251118061004b5750805b1561005c5761005a83836100a1565b505b505050565b61006a816100cd565b6040516001600160a01b038216907fbc7cd75a20ee27fd9adebab32041f755214dbc6bffa90cc0225b39da2e5c2d3b90600090a250565b60606100c683836040518060600160405280602781526020016104ba60279139610180565b9392505050565b6001600160a01b0381163b61013f5760405162461bcd60e51b815260206004820152602d60248201527f455243313936373a206e657720696d706c656d656e746174696f6e206973206e60448201526c1bdd08184818dbdb9d1c9858dd609a1b60648201526084015b60405180910390fd5b7f360894a13ba1a3210667c828492db98dca3e2076cc3735a920a3ca505d382bbc80546001600160a01b0319166001600160a01b0392909216919091179055565b6060600080856001600160a01b03168560405161019d91906103ac565b600060405180830381855af49150503d80600081146101d8576040519150601f19603f3d011682016040523d82523d6000602084013e6101dd565b606091505b5090925090506101ef868383876101f9565b9695505050505050565b60608315610268578251600003610261576001600160a01b0385163b6102615760405162461bcd60e51b815260206004820152601d60248201527f416464726573733a2063616c6c20746f206e6f6e2d636f6e74726163740000006044820152606401610136565b5081610272565b610272838361027a565b949350505050565b81511561028a5781518083602001fd5b8060405162461bcd60e51b815260040161013691906103c8565b634e487b7160e01b600052604160045260246000fd5b60005b838110156102d55781810151838201526020016102bd565b50506000910152565b600080604083850312156102f157600080fd5b82516001600160a01b038116811461030857600080fd5b60208401519092506001600160401b038082111561032557600080fd5b818501915085601f83011261033957600080fd5b81518181111561034b5761034b6102a4565b604051601f8201601f19908116603f01168101908382118183101715610373576103736102a4565b8160405282815288602084870101111561038c57600080fd5b61039d8360208301602088016102ba565b80955050505050509250929050565b600082516103be8184602087016102ba565b9190910192915050565b60208152600082518060208401526103e78160408501602087016102ba565b601f01601f19169190910160400192915050565b60b1806104096000396000f3fe608060405236601057600e6013565b005b600e5b601f601b6021565b6058565b565b600060537f360894a13ba1a3210667c828492db98dca3e2076cc3735a920a3ca505d382bbc546001600160a01b031690565b905090565b3660008037600080366000845af43d6000803e8080156076573d6000f35b3d6000fdfea26469706673582212207e1aa10866bc767fa26e72eb581d50c4eea2458485668ea1ca5a82d1c8558ea264736f6c63430008130033416464726573733a206c6f772d6c6576656c2064656c65676174652063616c6c206661696c65640000000000000000000000001b8c7a6b778eede6db61a8e01922b6f350810ade000000000000000000000000000000000000000000000000000000000000004000000000000000000000000000000000000000000000000000000000000001248e85643a0000000000000000000000007ff6363cd3a4e7f9ece98d78dd3c862bace2163d000000000000000000000000f8a31352e237af670d5dc6e9b75a4401a37bad0e000000000000000000000000016562aa41a8697720ce0943f003141f5deae00600000000000000000000000000000000000000000000000000000000000000a000000000000000000000000000000000000000000000000000000000000000e000000000000000000000000000000000000000000000000000000000000000064c6f62627933000000000000000000000000000000000000000000000000000000000000000000000000000000000000000000000000000000000000000000054c4f42425900000000000000000000000000000000000000000000000000000000000000000000000000000000000000000000000000000000000000",
        "nonce": "0x2a",
        "accessList": []
      },
      "additionalContracts": [],
      "isFixedGasLimit": false
    },
    {
      "hash": "0x28cda4a5d42ad99651b423955e138f3b892f0801b5ad6af998fcd7efc5366e43",
      "transactionType": "CALL",
      "contractName": null,
      "contractAddress": "0xDd38b268a50ce1553D7666D59A66f3960b3fbcBe",
      "function": "batch(bool,bytes[]):((bool,bytes)[])",
      "arguments": [
        "false",
        "[0xf54e8267000000000000000000000000bb942519a1339992630b13c3252f04fcb09d48410000000000000000000000000000000000000000000000000000000000000002, 0x2917c9ee00000000000000000000000000000000000000000000000000000000000000010000000000000000000000008626bfa8dc92262d98a96a9a5ce8ccfdb0c59cb7, 0x2917c9ee0000000000000000000000000000000000000000000000000000000000000003000000000000000000000000ffffffffffffffffffffffffffffffffffffffff]"
      ],
      "rpc": "https://eth-goerli.alchemyapi.io/v2/ZJIj3ytrFaWioVp550EyzD4MR9q5VClg",
      "transaction": {
        "type": "0x02",
        "from": "0x7ff6363cd3a4e7f9ece98d78dd3c862bace2163d",
        "to": "0xdd38b268a50ce1553d7666d59a66f3960b3fbcbe",
        "gas": "0x278c3",
        "value": "0x0",
        "data": "0xc0d0c1c7000000000000000000000000000000000000000000000000000000000000000000000000000000000000000000000000000000000000000000000000000000400000000000000000000000000000000000000000000000000000000000000003000000000000000000000000000000000000000000000000000000000000006000000000000000000000000000000000000000000000000000000000000000e000000000000000000000000000000000000000000000000000000000000001600000000000000000000000000000000000000000000000000000000000000044f54e8267000000000000000000000000bb942519a1339992630b13c3252f04fcb09d484100000000000000000000000000000000000000000000000000000000000000020000000000000000000000000000000000000000000000000000000000000000000000000000000000000000000000000000000000000000000000442917c9ee00000000000000000000000000000000000000000000000000000000000000010000000000000000000000008626bfa8dc92262d98a96a9a5ce8ccfdb0c59cb70000000000000000000000000000000000000000000000000000000000000000000000000000000000000000000000000000000000000000000000442917c9ee0000000000000000000000000000000000000000000000000000000000000003000000000000000000000000ffffffffffffffffffffffffffffffffffffffff00000000000000000000000000000000000000000000000000000000",
        "nonce": "0x2b",
        "accessList": []
      },
      "additionalContracts": [],
      "isFixedGasLimit": false
    },
    {
      "hash": "0x7eb441d35e026827db254642c8ef4971686f7f3baceb59cc574457c101604332",
      "transactionType": "CALL",
      "contractName": null,
      "contractAddress": "0xDd38b268a50ce1553D7666D59A66f3960b3fbcBe",
      "function": "transferOwnership(address)",
      "arguments": [
        "0x016562aA41A8697720ce0943F003141f5dEAe006"
      ],
      "rpc": "https://eth-goerli.alchemyapi.io/v2/ZJIj3ytrFaWioVp550EyzD4MR9q5VClg",
      "transaction": {
        "type": "0x02",
        "from": "0x7ff6363cd3a4e7f9ece98d78dd3c862bace2163d",
        "to": "0xdd38b268a50ce1553d7666d59a66f3960b3fbcbe",
        "gas": "0xb4b4",
        "value": "0x0",
        "data": "0xf2fde38b000000000000000000000000016562aa41a8697720ce0943f003141f5deae006",
        "nonce": "0x2c",
        "accessList": []
      },
      "additionalContracts": [],
      "isFixedGasLimit": false
    }
  ],
  "receipts": [],
  "libraries": [],
  "pending": [
    "0x4377f58e236423e06c935349ef3ac62b2ef795a310ac8003e556513ac0088f58",
    "0x28cda4a5d42ad99651b423955e138f3b892f0801b5ad6af998fcd7efc5366e43",
    "0x7eb441d35e026827db254642c8ef4971686f7f3baceb59cc574457c101604332"
  ],
  "path": "/Users/cswenberg/Code/station/tokens-v1/broadcast/Deploy.s.sol/5/run-latest.json",
  "returns": {},
  "timestamp": 1685143580,
  "chain": 5,
  "multi": false,
  "commit": "d15e917"
}