{
  "transactions": [
    {
      "hash": "0xec3f5a906ecccf22757bc16d0f347f6cd9c62c7152aab66697d692ed44adaaea",
      "transactionType": "CALL",
      "contractName": null,
      "contractAddress": "0x83140Ce709401cd069c822Da74C9167335D5cBb8",
      "function": "init(address,address,string,string)",
      "arguments": [
        "0x016562aA41A8697720ce0943F003141f5dEAe006",
        "0x06507C449B1E8EBB8247f44b715F9Fe4E51B365A",
        "Station Social Badges",
        "SOCIAL"
      ],
      "rpc": "https://eth-goerli.alchemyapi.io/v2/ZJIj3ytrFaWioVp550EyzD4MR9q5VClg",
      "transaction": {
        "type": "0x02",
        "from": "0x7ff6363cd3a4e7f9ece98d78dd3c862bace2163d",
        "to": "0x83140ce709401cd069c822da74c9167335d5cbb8",
        "gas": "0x2c134",
        "value": "0x0",
        "data": "0x4d91d7d9000000000000000000000000016562aa41a8697720ce0943f003141f5deae00600000000000000000000000006507c449b1e8ebb8247f44b715f9fe4e51b365a000000000000000000000000000000000000000000000000000000000000008000000000000000000000000000000000000000000000000000000000000000c0000000000000000000000000000000000000000000000000000000000000001553746174696f6e20536f6369616c2042616467657300000000000000000000000000000000000000000000000000000000000000000000000000000000000006534f4349414c0000000000000000000000000000000000000000000000000000",
        "nonce": "0x17",
        "accessList": []
      },
      "additionalContracts": [],
      "isFixedGasLimit": false
    }
  ],
  "receipts": [
    {
      "transactionHash": "0xec3f5a906ecccf22757bc16d0f347f6cd9c62c7152aab66697d692ed44adaaea",
      "transactionIndex": "0xe",
      "blockHash": "0xf8cbee7226302e85393aa976f3c0e1fcc9c2b5afa5568d1aeb30f6efea880e3b",
      "blockNumber": "0x87b91d",
      "from": "0x7ff6363cd3A4E7f9ece98d78Dd3c862bacE2163d",
      "to": "0x83140Ce709401cd069c822Da74C9167335D5cBb8",
      "cumulativeGasUsed": "0x2f8d2e",
      "gasUsed": "0x1e231",
      "contractAddress": null,
      "logs": [
        {
          "address": "0x83140Ce709401cd069c822Da74C9167335D5cBb8",
          "topics": [
            "0x8be0079c531659141344cd1fd0a4f28419497f9722a3daafe3b4186f6b6457e0",
            "0x0000000000000000000000000000000000000000000000000000000000000000",
            "0x000000000000000000000000016562aa41a8697720ce0943f003141f5deae006"
          ],
          "data": "0x",
          "blockHash": "0xf8cbee7226302e85393aa976f3c0e1fcc9c2b5afa5568d1aeb30f6efea880e3b",
          "blockNumber": "0x87b91d",
          "transactionHash": "0xec3f5a906ecccf22757bc16d0f347f6cd9c62c7152aab66697d692ed44adaaea",
          "transactionIndex": "0xe",
          "logIndex": "0x3c",
          "removed": false
        },
        {
          "address": "0x83140Ce709401cd069c822Da74C9167335D5cBb8",
          "topics": [
            "0x1c8ae4f71f1614ce002c619a7f5b6da87fb840f0634fb6373e901f7445a2275f",
            "0x00000000000000000000000006507c449b1e8ebb8247f44b715f9fe4e51b365a"
          ],
          "data": "0x",
          "blockHash": "0xf8cbee7226302e85393aa976f3c0e1fcc9c2b5afa5568d1aeb30f6efea880e3b",
          "blockNumber": "0x87b91d",
          "transactionHash": "0xec3f5a906ecccf22757bc16d0f347f6cd9c62c7152aab66697d692ed44adaaea",
          "transactionIndex": "0xe",
          "logIndex": "0x3d",
          "removed": false
        },
        {
          "address": "0x83140Ce709401cd069c822Da74C9167335D5cBb8",
          "topics": [
            "0x7f26b83ff96e1f2b6a682f133852f6798a09c465da95921460cefb3847402498"
          ],
          "data": "0x0000000000000000000000000000000000000000000000000000000000000001",
          "blockHash": "0xf8cbee7226302e85393aa976f3c0e1fcc9c2b5afa5568d1aeb30f6efea880e3b",
          "blockNumber": "0x87b91d",
          "transactionHash": "0xec3f5a906ecccf22757bc16d0f347f6cd9c62c7152aab66697d692ed44adaaea",
          "transactionIndex": "0xe",
          "logIndex": "0x3e",
          "removed": false
        }
      ],
      "status": "0x1",
      "logsBloom": "0x00000000000000000004000000000000000000000000000000800000000000000000000000000000000000000000000000000000001000000000000000000000000000000000000000000000000000000001000000000000000000000000000000000000020000000800000000000800000000000000000000000000000000400000004000200000000000000000000000000000000080000000000000000000000000000000000000000000000400000000280000000000000000000000000001000000000000000000000000040001000000000000000000080000000020000000000000000000000000000020000000001000000000000000000000000000",
      "type": "0x2",
      "effectiveGasPrice": "0xcfd3d2094"
    }
  ],
  "libraries": [],
  "pending": [],
  "path": "/Users/cswenberg/Code/station/tokens-v1/broadcast/Deploy.s.sol/5/run-latest.json",
  "returns": {},
  "timestamp": 1682512659,
  "chain": 5,
  "multi": false,
  "commit": "8d5756d"
}