{
  "transactions": [
    {
      "hash": "0x06efa66a624434a681d2a91607cf2a4827fbdc3ba62f74414d8e1bf197d490a8",
      "transactionType": "CALL",
      "contractName": null,
      "contractAddress": "0x08300cfDcF6dD1A6870FC2B1594804C0Be8076eC",
      "function": "create(address,string,string,bytes):(address)",
      "arguments": [
        "0xE7affDB964178261Df49B86BFdBA78E9d768Db6D",
        "Frog Testing",
        "FROG",
        "0xac9650d800000000000000000000000000000000000000000000000000000000000000200000000000000000000000000000000000000000000000000000000000000009000000000000000000000000000000000000000000000000000000000000012000000000000000000000000000000000000000000000000000000000000001a0000000000000000000000000000000000000000000000000000000000000022000000000000000000000000000000000000000000000000000000000000002a0000000000000000000000000000000000000000000000000000000000000032000000000000000000000000000000000000000000000000000000000000003a0000000000000000000000000000000000000000000000000000000000000042000000000000000000000000000000000000000000000000000000000000004a0000000000000000000000000000000000000000000000000000000000000052000000000000000000000000000000000000000000000000000000000000000440439a74a5b8d02d70000000000000000000000000000000000000000000000000000000000000000000000000000000052db1fa1b82b63842513da4482cd41b26c1bc3070000000000000000000000000000000000000000000000000000000000000000000000000000000000000000000000000000000000000000000000440439a74a562008190000000000000000000000000000000000000000000000000000000000000000000000000000000052db1fa1b82b63842513da4482cd41b26c1bc3070000000000000000000000000000000000000000000000000000000000000000000000000000000000000000000000000000000000000000000000440439a74a734d7ba40000000000000000000000000000000000000000000000000000000000000000000000000000000052db1fa1b82b63842513da4482cd41b26c1bc3070000000000000000000000000000000000000000000000000000000000000000000000000000000000000000000000000000000000000000000000440439a74a073bca3400000000000000000000000000000000000000000000000000000000000000000000000000000000d130547bfcb52f66d0233f0206a6c427d89f81ed0000000000000000000000000000000000000000000000000000000000000000000000000000000000000000000000000000000000000000000000440439a74a8638c44900000000000000000000000000000000000000000000000000000000000000000000000000000000d130547bfcb52f66d0233f0206a6c427d89f81ed000000000000000000000000000000000000000000000000000000000000000000000000000000000000000000000000000000000000000000000044c2593dc70b6c53f325d325d3000000000000000000000000000000000000000000000000000000000000000000000000bb942519a1339992630b13c3252f04fcb09d4841000000000000000000000000000000000000000000000000000000000000000000000000000000000000000000000000000000000000000000000044c2593dc738381131ea27ecba0000000000000000000000000000000000000000000000000000000000000000000000008226ff7e6f1cd020dc23901f71265d7d47a636d4000000000000000000000000000000000000000000000000000000000000000000000000000000000000000000000000000000000000000000000044c2593dc7fd45ddde6135ec42000000000000000000000000000000000000000000000000000000000000000000000000e7affdb964178261df49b86bfdba78e9d768db6d000000000000000000000000000000000000000000000000000000000000000000000000000000000000000000000000000000000000000000000044c2593dc7fd45ddde6135ec420000000000000000000000000000000000000000000000000000000000000000000000007ff6363cd3a4e7f9ece98d78dd3c862bace2163d00000000000000000000000000000000000000000000000000000000"
      ],
      "transaction": {
        "type": "0x02",
        "from": "0x7ff6363cd3a4e7f9ece98d78dd3c862bace2163d",
        "to": "0x08300cfdcf6dd1a6870fc2b1594804c0be8076ec",
        "gas": "0xead4a",
        "value": "0x0",
        "data": "0x485a7a64000000000000000000000000e7affdb964178261df49b86bfdba78e9d768db6d000000000000000000000000000000000000000000000000000000000000008000000000000000000000000000000000000000000000000000000000000000c00000000000000000000000000000000000000000000000000000000000000100000000000000000000000000000000000000000000000000000000000000000c46726f672054657374696e670000000000000000000000000000000000000000000000000000000000000000000000000000000000000000000000000000000446524f470000000000000000000000000000000000000000000000000000000000000000000000000000000000000000000000000000000000000000000005e4ac9650d800000000000000000000000000000000000000000000000000000000000000200000000000000000000000000000000000000000000000000000000000000009000000000000000000000000000000000000000000000000000000000000012000000000000000000000000000000000000000000000000000000000000001a0000000000000000000000000000000000000000000000000000000000000022000000000000000000000000000000000000000000000000000000000000002a0000000000000000000000000000000000000000000000000000000000000032000000000000000000000000000000000000000000000000000000000000003a0000000000000000000000000000000000000000000000000000000000000042000000000000000000000000000000000000000000000000000000000000004a0000000000000000000000000000000000000000000000000000000000000052000000000000000000000000000000000000000000000000000000000000000440439a74a5b8d02d70000000000000000000000000000000000000000000000000000000000000000000000000000000052db1fa1b82b63842513da4482cd41b26c1bc3070000000000000000000000000000000000000000000000000000000000000000000000000000000000000000000000000000000000000000000000440439a74a562008190000000000000000000000000000000000000000000000000000000000000000000000000000000052db1fa1b82b63842513da4482cd41b26c1bc3070000000000000000000000000000000000000000000000000000000000000000000000000000000000000000000000000000000000000000000000440439a74a734d7ba40000000000000000000000000000000000000000000000000000000000000000000000000000000052db1fa1b82b63842513da4482cd41b26c1bc3070000000000000000000000000000000000000000000000000000000000000000000000000000000000000000000000000000000000000000000000440439a74a073bca3400000000000000000000000000000000000000000000000000000000000000000000000000000000d130547bfcb52f66d0233f0206a6c427d89f81ed0000000000000000000000000000000000000000000000000000000000000000000000000000000000000000000000000000000000000000000000440439a74a8638c44900000000000000000000000000000000000000000000000000000000000000000000000000000000d130547bfcb52f66d0233f0206a6c427d89f81ed000000000000000000000000000000000000000000000000000000000000000000000000000000000000000000000000000000000000000000000044c2593dc70b6c53f325d325d3000000000000000000000000000000000000000000000000000000000000000000000000bb942519a1339992630b13c3252f04fcb09d4841000000000000000000000000000000000000000000000000000000000000000000000000000000000000000000000000000000000000000000000044c2593dc738381131ea27ecba0000000000000000000000000000000000000000000000000000000000000000000000008226ff7e6f1cd020dc23901f71265d7d47a636d4000000000000000000000000000000000000000000000000000000000000000000000000000000000000000000000000000000000000000000000044c2593dc7fd45ddde6135ec42000000000000000000000000000000000000000000000000000000000000000000000000e7affdb964178261df49b86bfdba78e9d768db6d000000000000000000000000000000000000000000000000000000000000000000000000000000000000000000000000000000000000000000000044c2593dc7fd45ddde6135ec420000000000000000000000000000000000000000000000000000000000000000000000007ff6363cd3a4e7f9ece98d78dd3c862bace2163d0000000000000000000000000000000000000000000000000000000000000000000000000000000000000000000000000000000000000000",
        "nonce": "0xfe",
        "accessList": []
      },
      "additionalContracts": [
        {
          "transactionType": "CREATE",
          "address": "0xAd67270063Ef6439E9923c7eC9281640cB4D99dC",
          "initCode": "60806040526040516104e13803806104e1833981016040819052610022916102de565b61002e82826000610035565b50506103fb565b61003e83610061565b60008251118061004b5750805b1561005c5761005a83836100a1565b505b505050565b61006a816100cd565b6040516001600160a01b038216907fbc7cd75a20ee27fd9adebab32041f755214dbc6bffa90cc0225b39da2e5c2d3b90600090a250565b60606100c683836040518060600160405280602781526020016104ba60279139610180565b9392505050565b6001600160a01b0381163b61013f5760405162461bcd60e51b815260206004820152602d60248201527f455243313936373a206e657720696d706c656d656e746174696f6e206973206e60448201526c1bdd08184818dbdb9d1c9858dd609a1b60648201526084015b60405180910390fd5b7f360894a13ba1a3210667c828492db98dca3e2076cc3735a920a3ca505d382bbc80546001600160a01b0319166001600160a01b0392909216919091179055565b6060600080856001600160a01b03168560405161019d91906103ac565b600060405180830381855af49150503d80600081146101d8576040519150601f19603f3d011682016040523d82523d6000602084013e6101dd565b606091505b5090925090506101ef868383876101f9565b9695505050505050565b60608315610268578251600003610261576001600160a01b0385163b6102615760405162461bcd60e51b815260206004820152601d60248201527f416464726573733a2063616c6c20746f206e6f6e2d636f6e74726163740000006044820152606401610136565b5081610272565b610272838361027a565b949350505050565b81511561028a5781518083602001fd5b8060405162461bcd60e51b815260040161013691906103c8565b634e487b7160e01b600052604160045260246000fd5b60005b838110156102d55781810151838201526020016102bd565b50506000910152565b600080604083850312156102f157600080fd5b82516001600160a01b038116811461030857600080fd5b60208401519092506001600160401b038082111561032557600080fd5b818501915085601f83011261033957600080fd5b81518181111561034b5761034b6102a4565b604051601f8201601f19908116603f01168101908382118183101715610373576103736102a4565b8160405282815288602084870101111561038c57600080fd5b61039d8360208301602088016102ba565b80955050505050509250929050565b600082516103be8184602087016102ba565b9190910192915050565b60208152600082518060208401526103e78160408501602087016102ba565b601f01601f19169190910160400192915050565b60b1806104096000396000f3fe608060405236601057600e6013565b005b600e5b601f601b6021565b6058565b565b600060537f360894a13ba1a3210667c828492db98dca3e2076cc3735a920a3ca505d382bbc546001600160a01b031690565b905090565b3660008037600080366000845af43d6000803e8080156076573d6000f35b3d6000fdfea264697066735822122058564faee34fe981f71def1503eb2be723bb9d12bea1c763f97c1cba238e36fe64736f6c63430008130033416464726573733a206c6f772d6c6576656c2064656c65676174652063616c6c206661696c65640000000000000000000000007cb71e61843a4e567ff6da9a02e1e8c55ff2b47300000000000000000000000000000000000000000000000000000000000000400000000000000000000000000000000000000000000000000000000000000000"
        }
      ],
      "isFixedGasLimit": false
    }
  ],
  "receipts": [
    {
      "transactionHash": "0x06efa66a624434a681d2a91607cf2a4827fbdc3ba62f74414d8e1bf197d490a8",
      "transactionIndex": "0x2",
      "blockHash": "0x73de018829a6fa538946c70b74ecd14e042dfacba865cb574e9ebd19e42112e5",
      "blockNumber": "0x9154bc",
      "from": "0x7ff6363cd3A4E7f9ece98d78Dd3c862bacE2163d",
      "to": "0x08300cfDcF6dD1A6870FC2B1594804C0Be8076eC",
      "cumulativeGasUsed": "0x11e02d",
      "gasUsed": "0xaa08c",
      "contractAddress": null,
      "logs": [
        {
          "address": "0xAd67270063Ef6439E9923c7eC9281640cB4D99dC",
          "topics": [
            "0xbc7cd75a20ee27fd9adebab32041f755214dbc6bffa90cc0225b39da2e5c2d3b",
            "0x0000000000000000000000007cb71e61843a4e567ff6da9a02e1e8c55ff2b473"
          ],
          "data": "0x",
          "blockHash": "0x73de018829a6fa538946c70b74ecd14e042dfacba865cb574e9ebd19e42112e5",
          "blockNumber": "0x9154bc",
          "transactionHash": "0x06efa66a624434a681d2a91607cf2a4827fbdc3ba62f74414d8e1bf197d490a8",
          "transactionIndex": "0x2",
          "logIndex": "0xc",
          "removed": false
        },
        {
          "address": "0xAd67270063Ef6439E9923c7eC9281640cB4D99dC",
          "topics": [
            "0x8be0079c531659141344cd1fd0a4f28419497f9722a3daafe3b4186f6b6457e0",
            "0x0000000000000000000000000000000000000000000000000000000000000000",
            "0x00000000000000000000000008300cfdcf6dd1a6870fc2b1594804c0be8076ec"
          ],
          "data": "0x",
          "blockHash": "0x73de018829a6fa538946c70b74ecd14e042dfacba865cb574e9ebd19e42112e5",
          "blockNumber": "0x9154bc",
          "transactionHash": "0x06efa66a624434a681d2a91607cf2a4827fbdc3ba62f74414d8e1bf197d490a8",
          "transactionIndex": "0x2",
          "logIndex": "0xd",
          "removed": false
        },
        {
          "address": "0xAd67270063Ef6439E9923c7eC9281640cB4D99dC",
          "topics": [
            "0xf1a5d3e66660bd9e7b8ebd2a61970410ac63e9e1a874ebb0e0396cd4b41ac125",
            "0x5b8d02d700000000000000000000000000000000000000000000000000000000",
            "0x0000000000000000000000000000000000000000000000000000000000000000",
            "0x00000000000000000000000052db1fa1b82b63842513da4482cd41b26c1bc307"
          ],
          "data": "0x",
          "blockHash": "0x73de018829a6fa538946c70b74ecd14e042dfacba865cb574e9ebd19e42112e5",
          "blockNumber": "0x9154bc",
          "transactionHash": "0x06efa66a624434a681d2a91607cf2a4827fbdc3ba62f74414d8e1bf197d490a8",
          "transactionIndex": "0x2",
          "logIndex": "0xe",
          "removed": false
        },
        {
          "address": "0xAd67270063Ef6439E9923c7eC9281640cB4D99dC",
          "topics": [
            "0xf1a5d3e66660bd9e7b8ebd2a61970410ac63e9e1a874ebb0e0396cd4b41ac125",
            "0x5620081900000000000000000000000000000000000000000000000000000000",
            "0x0000000000000000000000000000000000000000000000000000000000000000",
            "0x00000000000000000000000052db1fa1b82b63842513da4482cd41b26c1bc307"
          ],
          "data": "0x",
          "blockHash": "0x73de018829a6fa538946c70b74ecd14e042dfacba865cb574e9ebd19e42112e5",
          "blockNumber": "0x9154bc",
          "transactionHash": "0x06efa66a624434a681d2a91607cf2a4827fbdc3ba62f74414d8e1bf197d490a8",
          "transactionIndex": "0x2",
          "logIndex": "0xf",
          "removed": false
        },
        {
          "address": "0xAd67270063Ef6439E9923c7eC9281640cB4D99dC",
          "topics": [
            "0xf1a5d3e66660bd9e7b8ebd2a61970410ac63e9e1a874ebb0e0396cd4b41ac125",
            "0x734d7ba400000000000000000000000000000000000000000000000000000000",
            "0x0000000000000000000000000000000000000000000000000000000000000000",
            "0x00000000000000000000000052db1fa1b82b63842513da4482cd41b26c1bc307"
          ],
          "data": "0x",
          "blockHash": "0x73de018829a6fa538946c70b74ecd14e042dfacba865cb574e9ebd19e42112e5",
          "blockNumber": "0x9154bc",
          "transactionHash": "0x06efa66a624434a681d2a91607cf2a4827fbdc3ba62f74414d8e1bf197d490a8",
          "transactionIndex": "0x2",
          "logIndex": "0x10",
          "removed": false
        },
        {
          "address": "0xAd67270063Ef6439E9923c7eC9281640cB4D99dC",
          "topics": [
            "0xf1a5d3e66660bd9e7b8ebd2a61970410ac63e9e1a874ebb0e0396cd4b41ac125",
            "0x073bca3400000000000000000000000000000000000000000000000000000000",
            "0x0000000000000000000000000000000000000000000000000000000000000000",
            "0x000000000000000000000000d130547bfcb52f66d0233f0206a6c427d89f81ed"
          ],
          "data": "0x",
          "blockHash": "0x73de018829a6fa538946c70b74ecd14e042dfacba865cb574e9ebd19e42112e5",
          "blockNumber": "0x9154bc",
          "transactionHash": "0x06efa66a624434a681d2a91607cf2a4827fbdc3ba62f74414d8e1bf197d490a8",
          "transactionIndex": "0x2",
          "logIndex": "0x11",
          "removed": false
        },
        {
          "address": "0xAd67270063Ef6439E9923c7eC9281640cB4D99dC",
          "topics": [
            "0xf1a5d3e66660bd9e7b8ebd2a61970410ac63e9e1a874ebb0e0396cd4b41ac125",
            "0x8638c44900000000000000000000000000000000000000000000000000000000",
            "0x0000000000000000000000000000000000000000000000000000000000000000",
            "0x000000000000000000000000d130547bfcb52f66d0233f0206a6c427d89f81ed"
          ],
          "data": "0x",
          "blockHash": "0x73de018829a6fa538946c70b74ecd14e042dfacba865cb574e9ebd19e42112e5",
          "blockNumber": "0x9154bc",
          "transactionHash": "0x06efa66a624434a681d2a91607cf2a4827fbdc3ba62f74414d8e1bf197d490a8",
          "transactionIndex": "0x2",
          "logIndex": "0x12",
          "removed": false
        },
        {
          "address": "0xAd67270063Ef6439E9923c7eC9281640cB4D99dC",
          "topics": [
            "0x70c1bbcf050e5b1587aabe97f0ba5633e67e187e67be1143cab0479dc75b81e7",
            "0x0b6c53f325d325d3000000000000000000000000000000000000000000000000",
            "0x000000000000000000000000bb942519a1339992630b13c3252f04fcb09d4841"
          ],
          "data": "0x",
          "blockHash": "0x73de018829a6fa538946c70b74ecd14e042dfacba865cb574e9ebd19e42112e5",
          "blockNumber": "0x9154bc",
          "transactionHash": "0x06efa66a624434a681d2a91607cf2a4827fbdc3ba62f74414d8e1bf197d490a8",
          "transactionIndex": "0x2",
          "logIndex": "0x13",
          "removed": false
        },
        {
          "address": "0xAd67270063Ef6439E9923c7eC9281640cB4D99dC",
          "topics": [
            "0x70c1bbcf050e5b1587aabe97f0ba5633e67e187e67be1143cab0479dc75b81e7",
            "0x38381131ea27ecba000000000000000000000000000000000000000000000000",
            "0x0000000000000000000000008226ff7e6f1cd020dc23901f71265d7d47a636d4"
          ],
          "data": "0x",
          "blockHash": "0x73de018829a6fa538946c70b74ecd14e042dfacba865cb574e9ebd19e42112e5",
          "blockNumber": "0x9154bc",
          "transactionHash": "0x06efa66a624434a681d2a91607cf2a4827fbdc3ba62f74414d8e1bf197d490a8",
          "transactionIndex": "0x2",
          "logIndex": "0x14",
          "removed": false
        },
        {
          "address": "0xAd67270063Ef6439E9923c7eC9281640cB4D99dC",
          "topics": [
            "0x70c1bbcf050e5b1587aabe97f0ba5633e67e187e67be1143cab0479dc75b81e7",
            "0xfd45ddde6135ec42000000000000000000000000000000000000000000000000",
            "0x000000000000000000000000e7affdb964178261df49b86bfdba78e9d768db6d"
          ],
          "data": "0x",
          "blockHash": "0x73de018829a6fa538946c70b74ecd14e042dfacba865cb574e9ebd19e42112e5",
          "blockNumber": "0x9154bc",
          "transactionHash": "0x06efa66a624434a681d2a91607cf2a4827fbdc3ba62f74414d8e1bf197d490a8",
          "transactionIndex": "0x2",
          "logIndex": "0x15",
          "removed": false
        },
        {
          "address": "0xAd67270063Ef6439E9923c7eC9281640cB4D99dC",
          "topics": [
            "0x70c1bbcf050e5b1587aabe97f0ba5633e67e187e67be1143cab0479dc75b81e7",
            "0xfd45ddde6135ec42000000000000000000000000000000000000000000000000",
            "0x0000000000000000000000007ff6363cd3a4e7f9ece98d78dd3c862bace2163d"
          ],
          "data": "0x",
          "blockHash": "0x73de018829a6fa538946c70b74ecd14e042dfacba865cb574e9ebd19e42112e5",
          "blockNumber": "0x9154bc",
          "transactionHash": "0x06efa66a624434a681d2a91607cf2a4827fbdc3ba62f74414d8e1bf197d490a8",
          "transactionIndex": "0x2",
          "logIndex": "0x16",
          "removed": false
        },
        {
          "address": "0xAd67270063Ef6439E9923c7eC9281640cB4D99dC",
          "topics": [
            "0x8be0079c531659141344cd1fd0a4f28419497f9722a3daafe3b4186f6b6457e0",
            "0x00000000000000000000000008300cfdcf6dd1a6870fc2b1594804c0be8076ec",
            "0x000000000000000000000000e7affdb964178261df49b86bfdba78e9d768db6d"
          ],
          "data": "0x",
          "blockHash": "0x73de018829a6fa538946c70b74ecd14e042dfacba865cb574e9ebd19e42112e5",
          "blockNumber": "0x9154bc",
          "transactionHash": "0x06efa66a624434a681d2a91607cf2a4827fbdc3ba62f74414d8e1bf197d490a8",
          "transactionIndex": "0x2",
          "logIndex": "0x17",
          "removed": false
        },
        {
          "address": "0xAd67270063Ef6439E9923c7eC9281640cB4D99dC",
          "topics": [
            "0x5daa87a0e9463431830481fd4b6e3403442dfb9a12b9c07597e9f61d50b633c8"
          ],
          "data": "0x",
          "blockHash": "0x73de018829a6fa538946c70b74ecd14e042dfacba865cb574e9ebd19e42112e5",
          "blockNumber": "0x9154bc",
          "transactionHash": "0x06efa66a624434a681d2a91607cf2a4827fbdc3ba62f74414d8e1bf197d490a8",
          "transactionIndex": "0x2",
          "logIndex": "0x18",
          "removed": false
        },
        {
          "address": "0x08300cfDcF6dD1A6870FC2B1594804C0Be8076eC",
          "topics": [
            "0x241605f8d8515386cc295c966451dd500f771aea1eaeaa203ec5be9460b5c61e",
            "0x000000000000000000000000ad67270063ef6439e9923c7ec9281640cb4d99dc"
          ],
          "data": "0x",
          "blockHash": "0x73de018829a6fa538946c70b74ecd14e042dfacba865cb574e9ebd19e42112e5",
          "blockNumber": "0x9154bc",
          "transactionHash": "0x06efa66a624434a681d2a91607cf2a4827fbdc3ba62f74414d8e1bf197d490a8",
          "transactionIndex": "0x2",
          "logIndex": "0x19",
          "removed": false
        }
      ],
      "status": "0x1",
      "logsBloom": "0x2000100000000000000000000000000040000000400400000080000000000000000200000000200000100000000000000000000000000000080800000000030000001000000000000000000000000200000100000040020000100000000000000004208002000000810000000000480080c00000000000008000000000000040080000002000000808000008000040000002000000040000000000000410000800000000000040000000004000100000000008400000010040000200000401000a001020000000040000000000040000000000000080000000800000100020200800000000000008008020000208000001080040000000002000000000006010",
      "type": "0x2",
      "effectiveGasPrice": "0xb2d05e08"
    }
  ],
  "libraries": [],
  "pending": [],
  "returns": {},
  "timestamp": 1692138730,
  "chain": 5,
  "multi": false,
  "commit": "ebd38d0"
}